:020000040800F2
:10000000000001108D1300082D6B0008F921030872
:100010002D1400082D1400082D1400080000000005
:100020000000000000000000000000002F6B00082E
:10003000316B000800000000336B000841BC02086F
:100040002D1400082D1400082D1400082D1400088C
:100050002D1400082D1400081D74020825740208D0
:100060002D1400082D74020835740208B1350008FB
:10007000C5350008DD350008F53500080D360008E7
:10008000253600083D3600082D1400082D14000800
:100090002D1400082D1400082D1400083D740208CA
:1000A000013400082534000849340008E933000809
:1000B0006D34000881340008993400082D140008BC
:1000C0002D1400082D1400082D1400082D1400080C
:1000D0002D140008012900082D140008212900080A
:1000E000457402082D140008356B0008E13400083F
:1000F0000535000829350008C934000855360008C0
:100100002D1400082D140008B13400082D14000827
:100110002D1400082D1400082D1400082D140008BB
:100120006D360008853600089D360008B536000893
:10013000CD3600082D1400082D1400082D140008D9
:100140002D1400082D1400082D140008696B0008F8
:10015000E5360008FD36000815370008412900087B
:100160002D1400082D1400082D1400082D1400086B
:100170002D1400082D1400082D1400082D1400085B
:080180002D1400082D140008E5
:100190004B1C012B98BF70472DE9F003911C9B0865
:1001A000B1F80480B1F802900A8831F802CC80449A
:1001B000814402448444D9F80070D8F8006015687E
:1001C000DCF80040C9F80060C8F80070CCF80050B6
:1001D0001460D9F80470D8F804605568DCF804405D
:1001E000C9F80460C8F80470CCF8045054600831B1
:1001F000013BD5D1BDE8F00370474B1C012B98BFE4
:1002000070472DE9F003911C9B08B1F80480B1F808
:1002100002900A8831F802CC00EB580800EB59092B
:1002200000EB520200EB5C0CD9F80070D8F80060CB
:100230001568DCF80040C9F80060C8F80070CCF818
:10024000005014600831013BDFD1BDE8F003704776
:1002500001F0FF01102A2BDB10F0070F08D010F877
:10026000013B013A8B422DD010F0070F42B3F6D17B
:10027000F0B441EA012141EA014122F007047FF094
:1002800000070023F0E80256083C85EA010586EAEB
:10029000010685FA47F5A3FA87F586FA47F6A5FA27
:1002A00087F68EB9EED1F0BC01F0FF0102F0070233
:1002B00032B110F8013B013A83EA010313B1F8D1DE
:1002C0000020704701387047002D06BF35460338BF
:1002D000073815F0010F07D1013015F4807F02BFF8
:1002E000013015F4C03F0130F0BC0138704700BF49
:1002F000EC46A0E8F05F4FF000007047B0E8F05F18
:10030000E546080008BF0120704700BF10F8012B28
:1003100011F8013B012A28BF9A42F7D0D01A704742
:10032000034613F8012B002AFBD1181A0138704735
:1003300081F0004102E000BF83F0004330B54FEA96
:1003400041044FEA430594EA050F08BF90EA020F03
:100350001FBF54EA000C55EA020C7FEA645C7FEA96
:10036000655C00F0E2804FEA5454D4EB5555B8BFB9
:100370006D420CDD2C4480EA020281EA030382EA2A
:10038000000083EA010180EA020281EA0303362DBC
:1003900088BF30BD11F0004F4FEA01314FF4801C8F
:1003A0004CEA113102D0404261EB410113F0004FA1
:1003B0004FEA03334CEA133302D0524263EB430358
:1003C00094EA050F00F0A780A4F10104D5F1200EF6
:1003D0000DDB02FA0EFC22FA05F2801841F1000151
:1003E00003FA0EF2801843FA05F359410EE0A5F125
:1003F00020050EF1200E012A03FA0EFC28BF4CF056
:10040000020C43FA05F3C01851EBE37101F000450B
:1004100007D54FF0000EDCF1000C7EEB00006EEB18
:100420000101B1F5801F1BD3B1F5001F0CD34908A2
:100430005FEA30004FEA3C0C04F101044FEA4452F9
:1004400012F5800F80F09A80BCF1004F08BF5FEA80
:10045000500C50F1000041EB045141EA050130BD60
:100460005FEA4C0C404141EB0101013C28BFB1F572
:10047000801FE9D291F0000F04BF01460020B1FABD
:1004800081F308BF2033A3F10B03B3F120020CDA90
:100490000C3208DD02F1140CC2F10C0201FA0CF06E
:1004A00021FA02F10CE002F11402D8BFC2F1200CD3
:1004B00001FA02F120FA0CFCDCBF41EA0C01904089
:1004C000E41AA2BF01EB0451294330BD6FEA0404D2
:1004D0001F3C1CDA0C340EDC04F11404C4F12002BD
:1004E00020FA04F001FA02F340EA030021FA04F3CF
:1004F00045EA030130BDC4F10C04C4F1200220FA26
:1005000002F001FA04F340EA0300294630BD21FA63
:1005100004F0294630BD94F0000F83F4801306BF29
:1005200081F480110134013D4EE77FEA645C18BF1D
:100530007FEA655C29D094EA050F08BF90EA020FB4
:1005400005D054EA000C04BF1946104630BD91EAAC
:10055000030F1EBF0021002030BD5FEA545C05D1AF
:100560004000494128BF41F0004130BD14F58004EE
:100570003CBF01F5801130BD01F0004545F0FE4162
:1005800041F470014FF0000030BD7FEA645C1ABF97
:10059000194610467FEA655C1CBF0B46024650EACE
:1005A000013406BF52EA033591EA030F41F40021FA
:1005B00030BD00BF90F0000F04BF0021704730B580
:1005C0004FF4806404F132044FF000054FF0000155
:1005D00050E700BF90F0000F04BF0021704730B516
:1005E0004FF4806404F1320410F0004548BF4042EB
:1005F0004FF000013EE700BF42004FEAE2014FEA40
:1006000031014FEA02701FBF12F07F4393F07F4F1A
:1006100081F06051704732F07F4208BF704793F01D
:100620007F4F04BF41F40021704730B54FF4607430
:1006300001F0004521F000411CE700BF50EA010233
:1006400008BF704730B54FF000050AE050EA0102DC
:1006500008BF704730B511F0004502D5404261EB4C
:1006600041014FF4806404F132045FEA915C3FF48D
:10067000D8AE4FF003025FEADC0C18BF03325FEA2A
:10068000DC0C18BF033202EBDC02C2F1200300FADB
:1006900003FC20FA02F001FA03FE40EA0E0021FA00
:1006A00002F11444BDE600BF70B54FF0FF0C4CF4EE
:1006B000E06C1CEA11541DBF1CEA135594EA0C0FA0
:1006C00095EA0C0F00F0DEF82C4481EA030621EADB
:1006D0004C5123EA4C5350EA013518BF52EA033516
:1006E00041F4801143F4801338D0A0FB02CE4FF0C8
:1006F0000005E1FB02E506F00042E0FB03E54FF0F8
:100700000006E1FB03569CF0000F18BF4EF0010EEF
:10071000A4F1FF04B6F5007F64F5407404D25FEAEB
:100720004E0E6D4146EB060642EAC62141EA55519E
:100730004FEAC52040EA5E504FEACE2EB4F1FD0CE0
:1007400088BFBCF5E06F1ED8BEF1004F08BF5FEA5E
:10075000500E50F1000041EB045170BD06F0004610
:1007600046EA010140EA020081EA0301B4EB5C04BD
:10077000C2BFD4EB0C0541EA045170BD41F48011B5
:100780004FF0000E013C00F3AB8014F1360FDEBFDA
:10079000002001F0004170BDC4F10004203C35DAB6
:1007A0000C341BDC04F11404C4F1200500FA05F339
:1007B00020FA04F001FA05F240EA020001F00042DA
:1007C00021F0004110EBD37021FA04F642EB060150
:1007D0005EEA430E08BF20EAD37070BDC4F10C047A
:1007E000C4F1200500FA04F320FA05F001FA04F23E
:1007F00040EA020001F0004110EBD37041F100012A
:100800005EEA430E08BF20EAD37070BDC4F1200534
:1008100000FA05F24EEA020E20FA04F301FA05F29C
:1008200043EA020321FA04F001F0004121FA04F244
:1008300020EA020000EBD3705EEA430E08BF20EA14
:10084000D37070BD94F0000F0FD101F0004640004E
:1008500041EB010111F4801F08BF013CF7D041EAD0
:10086000060195F0000F18BF704703F000465200D4
:1008700043EB030313F4801F08BF013DF7D043EAA5
:100880000603704794EA0C0F0CEA135518BF95EA5B
:100890000C0F0CD050EA410618BF52EA4306D1D1E2
:1008A00081EA030101F000414FF0000070BD50EA01
:1008B000410606BF1046194652EA430619D094EA8B
:1008C0000C0F02D150EA013613D195EA0C0F05D175
:1008D00052EA03361CBF104619460AD181EA0301C9
:1008E00001F0004141F0FE4141F470014FF0000081
:1008F00070BD41F0FE4141F4780170BD70B54FF01C
:10090000FF0C4CF4E06C1CEA11541DBF1CEA13559B
:1009100094EA0C0F95EA0C0F00F0A7F8A4EB05047D
:1009200081EA030E52EA03354FEA013100F0888074
:100930004FEA03334FF0805545EA131343EA12633D
:100940004FEA022245EA111545EA10654FEA0026F2
:100950000EF000419D4208BF964244F1FD0404F5AB
:10096000407402D25B084FEA3202B61A65EB030507
:100970005B084FEA32024FF480104FF4002CB6EBC4
:10098000020E75EB030E22BFB61A754640EA0C0044
:100990005B084FEA3202B6EB020E75EB030E22BF84
:1009A000B61A754640EA5C005B084FEA3202B6EBC5
:1009B000020E75EB030E22BFB61A754640EA9C0084
:1009C0005B084FEA3202B6EB020E75EB030E22BF54
:1009D000B61A754640EADC0055EA060E18D04FEA12
:1009E000051545EA16754FEA06164FEAC30343EAB2
:1009F00052734FEAC2025FEA1C1CC0D111F4801F7F
:100A00000BD141EA00014FF000004FF0004CB6E777
:100A100011F4801F04BF01430020B4F1FD0C88BF16
:100A2000BCF5E06F3FF6AFAEB5EB030C04BFB6EB21
:100A3000020C5FEA500C50F1000041EB045170BD14
:100A40000EF0004E4EEA113114EB5C04C2BFD4EB41
:100A50000C0541EA045170BD41F480114FF0000EC5
:100A6000013C90E645EA060E8DE60CEA135594EA41
:100A70000C0F08BF95EA0C0F3FF43BAF94EA0C0F44
:100A80000AD150EA01347FF434AF95EA0C0F7FF4B9
:100A900025AF104619462CE795EA0C0F06D152EA0D
:100AA00003353FF4FDAE1046194622E750EA4106F1
:100AB00018BF52EA43067FF4C5AE50EA41047FF402
:100AC0000DAF52EA43057FF4EBAE12E74FF0FF3C67
:100AD00006E000BF4FF0010C02E000BF4FF0010C38
:100AE0004DF804CD4FEA410C7FEA6C5C4FEA430CB1
:100AF00018BF7FEA6C5C1BD001B050EA410C0CBF00
:100B000052EA430C91EA030F02BF90EA020F002061
:100B1000704710F1000F91EA030F58BF994208BFC8
:100B200090422CBFD8176FEAE37040F00100704785
:100B30004FEA410C7FEA6C5C02D150EA013C07D1DC
:100B40004FEA430C7FEA6C5CD6D152EA033CD3D027
:100B50005DF8040B704700BF8446104662468C4621
:100B60001946634600E000BF01B5FFF7B7FF002854
:100B700048BF10F1000F01BD4DF808EDFFF7F4FF7D
:100B80000CBF012000205DF808FB00BF4DF808ED08
:100B9000FFF7EAFF34BF012000205DF808FB00BF2B
:100BA0004DF808EDFFF7E0FF94BF012000205DF84D
:100BB00008FB00BF4DF808EDFFF7CEFF94BF012002
:100BC00000205DF808FB00BF4DF808EDFFF7C4FFFB
:100BD00034BF012000205DF808FB00BF4FEA410C44
:100BE0007FEA6C5C02D150EA013C0AD14FEA430C27
:100BF0007FEA6C5C02D152EA033C02D14FF0000064
:100C000070474FF0010070474FEA410212F50012A1
:100C100015D211D56FF47873B3EB625212D94FEA43
:100C2000C12343F0004343EA505311F0004F23FA2D
:100C300002F018BF404270474FF00000704750EA82
:100C4000013005D111F0004008BF6FF0004070473F
:100C50004FF00000704700BF4A0011D212F5001299
:100C600011D20DD56FF47873B3EB62520ED44FEA04
:100C7000C12343F0004343EA505323FA02F0704784
:100C80004FF00000704750EA013002D14FF0FF30C2
:100C900070474FF0000070474FEA4102B2F1E04365
:100CA00024BFB3F5001CDCF1FE5C0DD901F0004C53
:100CB0004FEAC0024CEA5070B2F1004F40EB8300A3
:100CC00008BF20F00100704711F0804F21D113F1CF
:100CD0003872BCBF01F00040704741F480114FEA08
:100CE0005252C2F11802C2F1200C10FA0CF320FA91
:100CF00002F018BF40F001004FEAC1234FEAD323AE
:100D000003FA0CFC40EA0C0023FA02F34FEA430317
:100D1000CCE77FEA625307D150EA01331EBF4FF0A0
:100D2000FE4040F44000704701F0004040F0FE40BB
:100D300040F40000704700BF80F0004002E000BFB8
:100D400081F0004142001FBF5FEA410392EA030FB6
:100D50007FEA226C7FEA236C6AD04FEA1262D2EB00
:100D60001363C1BFD218414048404140B8BF5B4205
:100D7000192B88BF704710F0004F40F4000020F09E
:100D80007F4018BF404211F0004F41F4000121F0B4
:100D90007F4118BF494292EA030F3FD0A2F10102FE
:100DA00041FA03FC10EB0C00C3F1200301FA03F13C
:100DB00000F0004302D5494260EB4000B0F5000F5F
:100DC00013D3B0F1807F06D340084FEA310102F11E
:100DD0000102FE2A51D2B1F1004F40EBC25008BFD0
:100DE00020F0010040EA03007047490040EB00009A
:100DF000013A28BFB0F5000FEDD2B0FA80FCACF19B
:100E0000080CB2EB0C0200FA0CF0AABF00EBC250C7
:100E100052421843BCBFD0401843704792F0000FB5
:100E200081F4000106BF80F400000132013BB5E708
:100E30004FEA41037FEA226C18BF7FEA236C21D07E
:100E400092EA030F04D092F0000F08BF08467047E3
:100E500090EA010F1CBF0020704712F07F4F04D1B1
:100E6000400028BF40F00040704712F100723CBFC4
:100E700000F50000704700F0004343F0FE4040F4EE
:100E8000000070477FEA226216BF08467FEA2363AC
:100E90000146420206BF5FEA412390EA010F40F497
:100EA000800070474FF0000304E000BF10F00043E3
:100EB00048BF40425FEA000C08BF704743F09643CA
:100EC00001464FF000001CE050EA010208BF7047E5
:100ED0004FF000030AE000BF50EA010208BF70476C
:100EE00011F0004302D5404261EB41015FEA010C81
:100EF00002BF84460146002043F0B64308BFA3F179
:100F00008053A3F50003BCFA8CF2083AA3EBC2535A
:100F100010DB01FA02FC634400FA02FCC2F1200279
:100F2000BCF1004F20FA02F243EB020008BF20F0B0
:100F30000100704702F1200201FA02FCC2F1200216
:100F400050EA4C0021FA02F243EB020008BF20EA0B
:100F5000DC7070477BB972B90029BEBF00204FF02A
:100F6000004106E008BF00281CBF6FF000414FF0B1
:100F7000FF3000F009BAADF1080C6DE904CE00298C
:100F800009DB002B1ADB00F097F8DDF804E0DDE95F
:100F9000022304B07047404261EB4101002B1BDB90
:100FA00000F08AF8DDF804E0DDE9022304B04042F5
:100FB00061EB4101524263EB43037047524263EBE2
:100FC000430300F079F8DDF804E0DDE9022304B022
:100FD000404261EB41017047524263EB430300F032
:100FE0006BF8DDF804E0DDE9022304B0524263EB64
:100FF0004303704753B94AB9002908BF00281CBFF2
:101000004FF0FF314FF0FF3000F0BEB9ADF1080CEA
:101010006DE904CE00F050F8DDF804E0DDE90223CC
:1010200004B07047430803F05533C01A830803F037
:10103000333300F03330184400EB101000F00F3061
:1010400000EB002000EB0040000E704738B5002296
:10105000002304460D46FFF799FD28B9204629468E
:10106000BDE8384000F00AB8204605F1004100F024
:1010700005F8404261EB410138BD00BFD0B50C4BD3
:10108000002206460F46FFF70FFBFFF7E5FD04467B
:10109000FFF790FA074B0022FFF706FB02460B46CC
:1010A00030463946FFF748F9FFF7D6FD2146D0BD57
:1010B0000000F03D0000F0412DE9F047089D044696
:1010C0008E46002B4DD18A42944669D9B2FA82F2FB
:1010D00052B101FA02F3C2F1200120FA01F10CFA37
:1010E00002FC41EA030E94404FEA1C48210CBEFB6F
:1010F000F8F61FFA8CF708FB16E341EA034306FBF8
:1011000007F199420AD91CEB030306F1FF3080F086
:101110001F81994240F21C81023E63445B1AA4B2D3
:10112000B3FBF8F008FB103344EA034400FB07F775
:10113000A7420AD91CEB040400F1FF3380F00A81B6
:10114000A74240F207816444023840EA0640E41BAB
:1011500000261DB1D4400023C5E900433146BDE857
:10116000F0878B4209D9002D00F0EF800026C5E9F9
:10117000000130463146BDE8F087B3FA83F6002E11
:101180004AD18B4202D3824200F2F980841A61EB89
:10119000030301209E46002DE0D0C5E9004EDDE7A7
:1011A00002B9FFDEB2FA82F2002A40F09280A1EB8F
:1011B0000C014FEA1C471FFA8CFE0126200CB1FBE4
:1011C000F7F307FB131140EA01410EFB03F08842DD
:1011D00008D91CEB010103F1FF3802D2884200F26A
:1011E000CB804346091AA4B2B1FBF7F007FB1011FC
:1011F00044EA01440EFB00FEA64508D91CEB04049A
:1012000000F1FF3102D2A64500F2BB800846A4EBF4
:101210000E0440EA03409CE7C6F12007B34022FADF
:1012200007FC4CEA030C20FA07F401FA06F31C430E
:10123000F9404FEA1C4900FA06F3B1FBF9F8200C1B
:101240001FFA8CFE09FB181140EA014108FB0EF061
:10125000884202FA06F20BD91CEB010108F1FF3AB1
:1012600080F08880884240F28580A8F102086144BD
:10127000091AA4B2B1FBF9F009FB101144EA0141CB
:1012800000FB0EFE8E4508D91CEB010100F1FF3476
:101290006CD28E456AD90238614440EA0840A0FB0E
:1012A0000294A1EB0E01A142C846A64656D353D0E4
:1012B0005DB1B3EB080261EB0E0101FA07F722FA08
:1012C00006F3F1401F43C5E9007100263146BDE831
:1012D000F087C2F12003D8400CFA02FC21FA03F394
:1012E000914001434FEA1C471FFA8CFEB3FBF7F015
:1012F00007FB10360B0C43EA064300FB0EF69E423A
:1013000004FA02F408D91CEB030300F1FF382FD2D2
:101310009E422DD9023863449B1B89B2B3FBF7F67A
:1013200007FB163341EA034106FB0EF38B4208D953
:101330001CEB010106F1FF3816D28B4214D9023E94
:101340006144C91A46EA004638E72E46284605E7B2
:101350000646E3E61846F8E64B45A9D2B9EB020883
:1013600064EB0C0E0138A3E74646EAE7204694E713
:101370004046D1E7D0467BE7023B614432E7304646
:1013800009E76444023842E7704700BF1C48016B1C
:1013900041F480110163BFF34F8F27F0A1FC2AF0C5
:1013A00064FB002103E0174B5B584350043116489F
:1013B000164B42189A42F6D3154A02E0002342F82F
:1013C000043B144B9A42F9D3134A02E0002342F83B
:1013D000043B124B9A42F9D3114A03E05FF0A53364
:1013E00042F8043B0F4B9A42F8D30F48016841F48E
:1013F0007001016000F0E4FA1DF02DFF7047FEE778
:1014000000380240EC200A0800000020981A002052
:10141000981A002064F00120000000104022001003
:10142000F8E70010F8FF001088ED00E0FEE700008C
:10143000094B98420CD0A3F5784398420AD003F5A3
:101440008063984201D1022070474FF0FF3070470F
:1014500000207047012070470030014000EB8002FF
:10146000654B53F82230002B00F0C480F0B587B0F4
:1014700004460D461346604A02EB8303987C08B18C
:1014800007B0F0BD04EB840602EB86060121307A3A
:101490002AF052F90021307A2AF08EF9707926F07C
:1014A000EFF8671CFFB23B460B220D2126F056F8E1
:1014B000F07926F0E5F83B460D22114626F04EF86D
:1014C000B07926F0DDF83B460C220D2126F046F8D7
:1014D000002D5CD004EB8406474B03EB8606707945
:1014E00026F0CEF8727A4A2126F070F8F07926F0CC
:1014F000C7F8727A2A2126F069F8B07926F0C0F888
:10150000727A0A2126F062F804EB84033A4A02EB6D
:1015100083031879002855D104EB8403364A52F826
:10152000230002F011FF4FF48273ADF80630002360
:10153000ADF80430ADF808304FF40072ADF80E206D
:10154000ADF812300723ADF814301023ADF8103089
:10155000002D43D00023ADF80A30ADF80C30264EF4
:1015600004EB84039F0006EB830501A9F05902F008
:101570004DFF0121F05902F070FF2879A8BB04EB60
:1015800084041D4800EB84040120A07478E704EB78
:101590008406194B03EB8606707926F071F8727A8F
:1015A0000A2126F013F8F07926F06AF8727A0A21F7
:1015B00026F00CF8B07926F063F8727A0A2126F04A
:1015C00005F8A1E726F05CF804EB84030A4A02EB75
:1015D00083035A7A092125F0F9FF9DE70223ADF82C
:1015E0000A300123ADF80C30B9E726F049F825F0B0
:1015F0008CFFC4E7002070470000002008B5FFF70B
:1016000017FFB0F1FF3F0CD0074A00EB800102EB5F
:1016100081010B8A9BB201339BB20B82088A80B294
:1016200008BD4FF0FF30FBE70000002070B5054615
:101630000E464FF47A740221284602F021FF48B981
:10164000631E9BB20CB11C46F5E72846FFF7D6FF98
:10165000C0B218E03146284602F010FF4FF47A7409
:101660000121284602F00CFF48B9631E9BB20CB161
:101670001C46F5E72846FFF7C1FFC0B203E0284645
:1016800002F0F9FEC0B270BD10B50446022102F0AE
:10169000F7FE08B9012010BD8021204602F0F0FEBF
:1016A000012801D00020F6E70120F4E72DE9F843F6
:1016B00005460F46164682894FF47A7403F1FF38C7
:1016C000BBB35EB116F8019B0221284602F0D8FE9A
:1016D00078B9631E9BB224B11C46F5E74FF0FF09B1
:1016E000F2E72846FFF78AFF003818BF0120BDE85F
:1016F000F8834946284602F0C1FE4FF47A7401216E
:10170000284602F0BDFE58B9631E9BB20CB11C46C0
:10171000F5E72846FFF772FF003818BF0120E6E71B
:10172000284602F0A8FEC0B20FB107F8010B4346ED
:10173000C4E70120DBE7000070B505460E46FFF761
:1017400077FEB0F1FF3F17D004460021284602F093
:1017500084FE2B889BB223F0380304EB84040748F3
:1017600000EB8404E26852F8262013439BB22B80DE
:101770000121284602F071FE70BD00BF000000206C
:1017800000EB8000014B53F8200070470000002060
:10179000C269036A9A4201D3D01A7047C0681044E4
:1017A000C01A7047426A836A9A4204D3D31A006906
:1017B000C01A0138704701690A44D31AF7E7826AF0
:1017C000406A824214BF00200120704703464169ED
:1017D000026A885CC0B20132D9688A4202D3002210
:1017E0001A6270471A62704708B58269436AD15419
:1017F000436A01330269934208D300234362012202
:1018000040F22771406B03F0CBF908BD4362F6E765
:1018100008B5827902F00102437913F0010100D08A
:10182000012113F0020F01D041F00201406B01F0E1
:10183000A9FE08BD10B584B004460021406B03F03A
:101840008FF9A3680093A37913F0040F39D04FF4F4
:101850008052ADF804201B0303F40053ADF80630AA
:10186000A3791B0203F48063ADF808300023ADF8C0
:101870000C30ADF80A30637913F0010F02D0042365
:10188000ADF80A30637913F0020F05D0BDF80A30C5
:1018900043F00803ADF80A306946606B03F0FAF8CC
:1018A0002046FFF7B5FFA37913F0080F0DD00121F3
:1018B000606B03F067F90121606B03F051F904B02C
:1018C00010BD0022ADF80420C5E70021606B03F0D5
:1018D00059F9F0E708B58160FFF7ACFF08BD08B51E
:1018E0004171FFF7A7FF08BD10B504461021406BFA
:1018F00003F071F908B9002010BD204600F044FF44
:101900000120F9E72DE9F8430F4616461D469DF8DC
:1019100020809DF82490274B984227D0264B984250
:101920002BD0264B984242D14A464146284600F0E9
:10193000FFFF044600232362E361A3626362E76260
:10194000266384F80580A56084F806902046FFF79A
:1019500071FF18F0010F17D118F0020F20D10121EB
:10196000606B03F0FDF82046BDE8F8834A46414627
:10197000284600F0BDFF0446DCE74A4641462846BB
:1019800000F0C6FF0446D5E740F22551606B03F036
:101990004EF9012240F22551606B03F001F9DBE7BB
:1019A000012240F22771606B03F0FAF8D7E70024B8
:1019B000D9E700BF0010014000480040001401407A
:1019C00008B52AF09AF80F49D1F8883043F470032B
:1019D000C1F888300C4B1A6842F001021A600020EE
:1019E00098601A6822F0847222F480321A60074AE2
:1019F0005A601A6822F480221A60D860044B8B6007
:101A000008BD00BF00ED00E00038024010300024A7
:101A100000000008224B9B6803F00C03042B15D038
:101A2000082B17D01BB11F4B1F4A1A6002E01D4B39
:101A30001D4A1A601A4B9B68C3F303131B4AD35CFD
:101A4000DAB218490B68D3400B607047154B184A3F
:101A50001A60EFE7124B59685A6802F03F0211F41E
:101A6000800F13D0124BB3FBF2F30D4A5268C2F34E
:101A7000881202FB03F30A4A5268C2F301420132A0
:101A80005200B3FBF2F3074A1360D3E7064BB3FBF4
:101A9000F2F3034A5268C2F3881202FB03F3EAE747
:101AA00000380240600000200024F40050000020B4
:101AB00000127A0000B583B00023019300932D4AF1
:101AC000136843F4803313602A4B1B6803F400331C
:101AD0000093019B01330193009B1BB9019BB3F55C
:101AE000A04FF1D1234B1B6813F4003F06D0012314
:101AF0000093009B012B04D000BFFDE7002300935F
:101B0000F7E71C4B1A6C42F080521A641A490A68B3
:101B100042F440420A609A689A609A6842F400422D
:101B20009A609A6842F4A0529A60144A5A601A68FD
:101B300042F080721A600F4B1B6813F0007FFAD0DE
:101B40000F4B40F205721A60A3F580639A6822F089
:101B500003029A609A6842F002029A60054B9B6801
:101B600003F00C03082BF9D1FFF754FF03B05DF825
:101B700004FB00BF003802400070004008544007DA
:101B8000003C024008B5244B98422DD303F5804316
:101B900098422BD303F58043984229D31F4B984298
:101BA00028D903F58033984226D903F500339842AB
:101BB00024D903F50033984222D903F50033984223
:101BC00020D903F5003398421ED903F580239842AB
:101BD0001CD9A3F5003398421AD9B0F1016F19D37B
:101BE000052029F054FFFBE7002008BD0820FCE792
:101BF0001020FAE71820F8E72020F6E72820F4E77D
:101C00003020F2E73820F0E74020EEE74820ECE70C
:101C10005020EAE75820E8E700400008FFFF0008EE
:101C200008B502F029F8F32002F03EF808BD08B527
:101C300002F032F808BD70B54669AEB904460D46EB
:101C40000068C0F30D0333B9FFF79CFF022102F0D7
:101C500071F809280AD12968206802F0A3F8092838
:101C600007D1236804332360304670BD4FF0FF3640
:101C7000FAE76FF00106F7E72DE9F0439BB0054660
:101C8000DFF8508100EB40044FEAC40908EBC404BC
:101C90000121607929F050FD0121207929F04CFDC6
:101CA000A06801F087FE05A801F05CFF58F8093034
:101CB0004C330693E3680593C822444B02FB05337B
:101CC000079300260896636903EB83039B0009933F
:101CD0000A964FF480630B934FF400630C934FF418
:101CE00000530D934FF480730E934FF400330F9312
:101CF00005A9A06801F00AFF0121A06801F043FFD7
:101D000001A801F0DFFD01964FF4403302930396E2
:101D1000049601A801F0C0FD14A801F0B3FD01274D
:101D20008DF85570149617961696189663698DF867
:101D30006430BB42D4BF002301238DF8543014A972
:101D400058F8090001F074FD3C463A4600E00134C1
:101D5000042C21DC04EB44031D4901EB83035B7A73
:101D6000002BF4D004EB440301EB830393F901301F
:101D7000AB42ECD104EB4401154B03EB8101561C43
:101D8000F6B205EB45008B7A0979124F57F830000F
:101D900001F0A9FD3246DAE70E4E6F0005EB45046F
:101DA000E4000121305901F0FAFD0121305901F020
:101DB000EBFD0121305901F08BFD3D4456F8350013
:101DC00001F0DDFD1BB0BDE8F08300BF1C55012014
:101DD000D054012064000020034B984201D1002020
:101DE00070474FF0FF307047002001402DE9F84365
:101DF0000124002700E00134042C36DC04EB44030A
:101E0000244A12F823000028F5D090464FEA8309AF
:101E100002EB830595F9016025F032FCE2B20E3247
:101E20000023D2B2072125F099FB18F8090025F00C
:101E300027FC132125F09EFB18F8090023F0FEF87B
:101E40006860154B06EB460203EBC2025169481C61
:101E5000506129720722AA7201226A7206EB4606B5
:101E600003EBC60632741744C5E787B1002400E0CF
:101E70000134022C0BDC04EB4403074A02EBC303DE
:101E80001B7C002BF4D060B2FFF7F6FEF0E7BDE854
:101E9000F88300BFD054012064000020F8B5054647
:101EA0000F4625F032FB384625F02FFB112128463E
:101EB00025F060FB1121384625F05CFB002619E077
:101EC0000520002129F07EFF013C284625F0F8FA84
:101ED00008B9002CF4D1284625F023FB0520002169
:101EE00029F070FF284625F010FB0520002129F07D
:101EF00069FF0136082E01DC6424E6E7284625F058
:101F000010FB0520002129F05DFF384625F009FB74
:101F10000520002129F056FF284625F0F6FA052075
:101F2000002129F04FFF384625F0EFFAF8BD0000F8
:101F3000002304E0034A02EBC302D0710133022BF9
:101F4000F8D97047AC000020B0F1FF3F73D02DE905
:101F5000F04385B00446DFF8E49009EBC00528792A
:101F600025F08EFB0746687925F08AFB064601219D
:101F7000A87929F0E1FB04F101085FFA88F84346EB
:101F800009220E21384625F0E9FA43460A220E219D
:101F9000304625F0E3FA04223A21384625F016FBB4
:101FA00004223A21304625F011FB59F8340001F0A3
:101FB0008FFF684602F02CF80023ADF804304BF692
:101FC000FF72ADF80620ADF808304FF48063ADF82D
:101FD0000A304FF48043ADF80C30EB79022B24D05B
:101FE000032B25D0012B1DD0134B0093134D6946B5
:101FF00055F8340001F09EFF012155F8340002F03D
:1020000056F8012155F8340002F010F80C4A61012D
:1020100002EB4413545401225A7000229A7005B006
:10202000BDE8F083074B0093E0E7074B0093DDE743
:10203000064B0093DAE77047801A0600AC000020D8
:10204000981A002000350C00A0860100400D030006
:1020500070B5044690F900300C4D05EBC3052879A6
:1020600025F00EFB0646687925F00AFB0146084A72
:1020700013889BB201339BB213803046FFF70EFFEB
:1020800094F90000FFF760FF70BD00BFAC000020B6
:1020900084EE01202DE9F843044615461F4690F9C9
:1020A0000010A94A52F8316081780139142975D895
:1020B000DFE811F01A002F00400064006D008C0072
:1020C0009400BD00C500DB00E40036016B01A901EE
:1020D00012021F0247024F026E028A021500FFF72A
:1020E000B7FF0023A37059E0338813F4007F02D1B7
:1020F0000023837052E08368C268ED1A67EB020325
:1021000042F21072954273F1000347D31523837096
:1021100044E04FF2FF71304601F0D7FF0121304615
:1021200001F0B7FF0121304601F08EFF0323A370B9
:10213000A560E7608549304601F0DCFF80B1A37CF3
:102140005BB9E37CFF2B02D00423A37026E0237C41
:10215000002BF9D00A23A37020E00F23A3701DE009
:10216000A368E268ED1A67EB020342F2107295422F
:1021700073F1000312D31523A3700FE00022417CFA
:10218000304601F07DFF0523A370A560E76070492C
:10219000304601F0AFFF18B10623A370BDE8F88305
:1021A0006C49304601F0B4FF10B11423A370F5E779
:1021B000A368E268EB1A67EB020242F210718B42ED
:1021C00072F10003EAD31523A370E7E7C17C304620
:1021D00001F08BFF0723A370A560E7605E493046DE
:1021E00001F088FF68B1636913B10823A370D5E7D4
:1021F0000121304601F036FFA560E7600123A3709E
:10220000CCE75449304601F083FF10B11423A3708A
:10221000C4E7A368E268EB1A67EB020242F21071AE
:102220008B4272F10003B9D31523A370B6E70121E5
:10223000304601F009FF0923A370A560E760434918
:10224000304601F057FF10B10A23A370A6E7A36838
:10225000E268ED1A67EB020342F21072954273F1E5
:1022600000039BD31523A37098E70122417C3046DD
:1022700001F006FF0B23A370A560E76037493046E5
:1022800001F038FFA8B36369012B07D0022B1AD0E5
:10229000338B0E23A370A560E7607FE700213046F3
:1022A00001F0F7FEEFF31188102383F31288338BCC
:1022B0000121304601F0D6FE5FFA88F888F31188D4
:1022C0000C23A370E7E74FF40061304601F0FDFEF8
:1022D000EFF31188102383F31288338B00213046EB
:1022E00001F0D7FE5FFA88F888F311880D23A370F8
:1022F000D1E71849304601F00BFF10B11423A37049
:102300004CE7A368E268EB1A67EB020242F2107135
:102310008B4272F10003FFF441AF1523A3703DE738
:102320000F49304601F0F4FEE0B9A368E268ED1A07
:1023300067EB020342F21072954273F10003FFF45F
:102340002DAF1523A37029E7AC0000200100030086
:102350008200070000040010840007000200030050
:1023600040000010D4F8188008F10103A361304642
:1023700001F0BDFE88F800006369013B6361012341
:102380002377A560E760A37008E79649304601F01F
:10239000BFFE70B9A368E268ED1A67EB020342F270
:1023A0001072954273F10003FFF4F8AE1523A37089
:1023B000F4E6EFF31188102383F3128801213046ED
:1023C00001F050FED4F8189009F10103A3613046E2
:1023D00001F08DFE89F800005FFA88F888F3118813
:1023E000D4F8188008F10103A361304601F07FFEA4
:1023F00088F800006FF00103636101232377A56073
:10240000E760A370CAE67749304601F081FE0028F4
:1024100053D06369032B13D0022B3ED800213046E2
:1024200001F037FE0121304601F01CFE304601F07C
:102430005EFE00232377A560E7600123A370ADE66D
:102440000021304601F025FEEFF31188102383F3BD
:102450001288D4F8189009F10103A361304601F005
:1024600046FE89F800000121304601F0FBFD5FFACD
:1024700088F888F31188D4F8188008F10103A36163
:10248000304601F034FE88F800006369023B636166
:102490000C23A370A560E76080E6D4F8188008F1EB
:1024A0000103A361304601F022FE88F80000636951
:1024B000013B6361A560E76070E6A368E268ED1A1E
:1024C00067EB020342F21072954273F10003FFF4CE
:1024D00065AE1523A37061E60021304601F0D9FDF9
:1024E0000022617C304601F0CBFD1023A370A56073
:1024F000E7603D49304601F0FDFD58B1E37CFF2B1C
:1025000002D01123A37049E6237C002BF9D01323BA
:10251000A37043E63549304601F0FAFD10B11423AB
:10252000A3703BE6A368E268EB1A67EB020242F293
:1025300010718B4272F10003FFF430AE1523A370CB
:102540002CE6C17C304601F0D0FD1223A370A560BB
:10255000E7602749304601F0CDFD10B11323A37089
:102560001CE62249304601F0D3FD10B11423A370BC
:1025700014E6A368E268EB1A67EB020242F21071FC
:102580008B4272F10003FFF409AE1523A37005E638
:1025900043697BB183691978304601F0A6FDA369D0
:1025A0000133A3616369013B6361A560E7601223A6
:1025B000A370F3E50121304601F054FDA560E7600A
:1025C00001232377A370E9E50121304601F04AFD9C
:1025D0000649304601F0B8FDA560E7600123A3700D
:1025E000DCE500BF040000108200070000040010BA
:1025F0008400070038B5054629F0A6FB02460B46C5
:10260000044C04EB45142046FFF744FDA378002B4F
:10261000F2D138BD981A0020014B188880B270475B
:1026200084EE012084460F4800EB4C10407800B93E
:10263000704710B549000B4C04EB4C146174E27404
:102640000122A2746361029BA3610023237702230A
:10265000A3709DF80C3023746046FFF7CBFF207FFA
:1026600010BD00BF981A002000B585B08DF80F305E
:102670009DF8183001930DF10F0300930123FFF72C
:10268000D1FF05B05DF804FB84460E4800EB4C100A
:10269000407800B9704710B549000A4C04EB4C145F
:1026A0006174E2740022A2746361029BA3612277C9
:1026B0000223A3709DF80C3023746046FFF79AFF45
:1026C000207F10BD981A002010B5044640F2255115
:1026D000406B02F087FA01280DD040F22771606B41
:1026E00002F080FA01281DD00821606B02F07AFA0E
:1026F000012830D010BDE36A2BB1626B9088216B4A
:1027000080B29847E9E7636B9B886169E269DBB255
:102710008B54E3690133E268B3FBF2F102FB11333E
:10272000E361DAE7A36A626A93420DD0A269D15CE1
:10273000606B02F023FAA36A01332269B3FBF2F162
:1027400002FB1133A362CFE7002240F22771606BD6
:1027500002F026FAC8E74FF45871606B02F067FA8E
:10276000C8E70000074B53F8203033B193F83D2001
:102770004A7093F83C300B70704700234B700B701D
:10278000704700BF10C70708436B1A889B887047C3
:102790002DE9F0471F46524B53F82040002C00F023
:1027A0009C8005469046261D4E4B6360E16004F117
:1027B0003E03A36104F59F73E3614FF480732361CB
:1027C00063612368A36394F83D0024F059FF8146B8
:1027D00094F83C0024F054FF824694F8440280BBF5
:1027E00094F8450288BBD4F8400290BB17F0080F5C
:1027F00033D118F0020F4DD118F0010F58D194F8D1
:10280000471294F94722D4F84832002A5EDB1B01B4
:10281000DBB202F1604202F5614282F8003394F8C3
:10282000472294F94732002B08DB02F01F025B09B4
:10283000012101FA02F22C4941F823203046BDE87B
:10284000F087012128F078FFCAE7012128F074FF02
:10285000C9E7012101F0E0FCC8E76B1CDBB20722ED
:102860000821484624F07AFE17F0100F09D117F01E
:10287000200F0DD0122194F84622484624F0A6FEDF
:10288000BDE794F846220221484624F09FFEB6E7B1
:102890003221F0E76B1CDBB205220821484624F008
:1028A0005DFE94F846220221484624F08FFEA3E7FD
:1028B0006B1CDBB206220821504624F04FFE94F830
:1028C00046220221504624F081FE98E701F00F01D4
:1028D0001B01DBB2054A5354A1E72646AEE700BF11
:1028E00010C7070860C6070800E100E014ED00E02B
:1028F00008B513460A4601460020FFF749FF08BD08
:1029000008B50248FFF7E0FE08BD00BFC800002080
:1029100008B513460A4601460220FFF739FF08BDF5
:1029200008B50248FFF7D0FE08BD00BF1403002021
:1029300008B513460A4601460520FFF729FF08BDE2
:1029400008B50248FFF7C0FE08BD00BF60050020C3
:1029500010B582B00121254801F05EFC0121002064
:1029600001F068FC0121002001F072FC01212048E7
:1029700001F07CFC01211F4801F086FC684601F053
:1029800084FA00238DF807304FF6FF7400944EF25E
:10299000FF73009348F2FF7300936946164801F0F5
:1029A00021FA00946946154801F01CFA0094694622
:1029B000134801F017FA6946124801F013FA694604
:1029C000114801F00FFA6946104801F00BFA694608
:1029D0000F4801F007FA69460E4801F003FA69460C
:1029E0000D4801F0FFF902B010BD00BFFF91670074
:1029F000FFC9FE10335707000000024000040240E8
:102A000000080240000C0240001002400014024086
:102A100000180240001C024000200240044B5B6F83
:102A200013F0805F01D0012070470020704700BF85
:102A300000380240004870470000FF1F7047000048
:102A400008B5FFF737F84FF4407000F0DDFE144B87
:102A50005A6F144B1A600021134800F0DFFE00216A
:102A6000802001F0E7FB01F039FCFFF771FF28F04F
:102A7000A3FF0E4B1B680E4AA2FB03239B09013BDD
:102A8000B3F1807F0AD24FF0E0225361094BF0216D
:102A900083F82310002393610723136108BD00BF4F
:102AA000003802409C7301200000000860000020F4
:102AB000D34D621000ED00E000230D2B08DC054A29
:102AC00052F83320824201D00133F6E7D8B2704782
:102AD000FE207047C0C7070818B108B500F0EEF92E
:102AE00008BD704758B110B5044600F0E7F903215E
:102AF000204600F087F9204600F014FA10BD704718
:102B000070B505460068FFF7D7FF0D2830DC044696
:102B10002D4B53F8203093B32B4B53F824106A7984
:102B200002EB420201EBC202956053F824106A796D
:102B300002EB420201EBC2020020106153F82410A4
:102B40006A7902EB420201EBC202D06053F8241012
:102B50006A7902EB420201EBC202107553F824605D
:102B6000687900EB400006EBC0060436304670BDC5
:102B7000164A002105201DF0F7FF0026F6E7642025
:102B80001FF00EF90646104B43F82400A8B164224A
:102B9000002176F0A9FB0C4A52F824100C4B03EBF1
:102BA000C4030B6052F824305B60DB6152F82400F0
:102BB0004063C06400F024F9AEE7064A0021052016
:102BC0001DF0D2FFD2E700BF8823002030C70708DE
:102BD000C0C7070858C70708016042608360704794
:102BE00018B338B50C4605464B6893B1A368BBB122
:102BF000AC60636833B16B685B7902219940284609
:102C000000F09EF9A3681BB10121284600F098F955
:102C100038BD43685B790221994000F099F9E5E7F6
:102C20000121284600F094F9E2E7704708B500F06A
:102C300097F908BD43681B68D86A80B270470000E6
:102C400038B538220021144876F04EFB00240EE0FF
:102C500004EB8402114B53F82200FFF72DFF104BB9
:102C600003EBC0000121007928F066FD01340D4B13
:102C70001D68A542ECDC00240BE004EB8402074B4A
:102C800003EB8203187924F0FBFC402124F072FC52
:102C90000134A542F1DC38BD8823002050C8070864
:102CA000C0C7070854C907088446F8B1002300E0EC
:102CB00001330F4A12689A4216DD03EB83020D4876
:102CC00000EB820212796245F2D103EB830200EB42
:102CD0008202D2680A4201D10029E9D103EB8303C1
:102CE000044800EB830070470020704700207047C5
:102CF00054C9070850C8070808B500F0D5F908BD41
:102D000008B500F00FF908BD08B500F012F908BDCC
:102D100008B500F02EFA08BD08B5012100F040FA10
:102D200008BD08B5002100F03BFA08BD08B50068F1
:102D300000F03CFB08BD08B54068FFF7F7FF08BD91
:102D400008B500F039FA08BD08B500F0BBFA08BDB7
:102D500008B500F0EFFA08BD007C003818BF01206C
:102D60007047000001230F2B08D8054A52F8232092
:102D7000824201D80133F6E7581E70470F20704792
:102D800074C7070870B5044603691F2B0BD9426846
:102D90005168203B202202FA03F3194214BF012399
:102DA000002353B970BD42681168202202FA03F370
:102DB000194214BF01230023F3E7A66900253574E7
:102DC000F3682946986800F0DEFE736858792A4651
:102DD0000A4931F81010186801F050FE23691F2BC2
:102DE00006D9203B6168202202FA03F3CB60D9E7C1
:102DF0006168202202FA03F38B60D3E7B4C70708A7
:102E00007047000010B403681B685B7933B903682E
:102E10001B689B794BBB5DF8044B70475AB2002A84
:102E200019DB0B01DBB202F1604202F5614282F86C
:102E3000003303681B685A7993F90530002BE6DBF1
:102E400002F01F025B094FF0010C0CFA02F2194C60
:102E500044F82320DBE703F00F034FEA011C5FFA7D
:102E60008CFC154A02F803C0E3E74FFA83FCBCF17F
:102E7000000F18DB0901C9B20CF1604C0CF5614C74
:102E80008CF8001303681B689A7993F90630002BBD
:102E9000C1DB02F01F025B09012101FA02F20549C0
:102EA00041F82320B7E703F00F030A01D2B2024929
:102EB000CA54E7E700E100E014ED00E070B52DED45
:102EC000028B84B005460C4608EE102A03681B6886
:102ED0001E6801A801F0D6FB013CA4B2029428466A
:102EE000FFF729FF07EE900AF8EE677AB8EE488AF6
:102EF00087EE880ADFED0A7A30EE270A72F0A8F82A
:102F00000138ADF804000023ADF80C30ADF8063000
:102F100001A9304601F078FB04B0BDEC028B70BD16
:102F20000AD7233C08B543680121186801F0C3FBA8
:102F300008BD08B543680121186801F081FD08BD8E
:102F400008B54368012289B2186801F08BFD08BDFD
:102F500008B54368002289B2186801F083FD08BDF6
:102F600070B584B004460E46154601A801F0FFFC7A
:102F700063685B790D4AD35CADF80430A6B10023D9
:102F8000ADF806300123ADF808300023ADF80A3063
:102F90002846FFF7E7FEADF80C00636801A9186842
:102FA00001F01DFD04B070BD0223E9E7BCC70708AE
:102FB000F0B583B006460D46038A8489A4B21C404E
:102FC00048E0F76AEB6823B19B6813B1B9B2281DDA
:102FD00098476B6A2BB19B681BB1B9B205F11C0015
:102FE0009847EB6B2BB19B681BB1B9B205F134006C
:102FF00098476B6D002B2DD09B68002B2AD0B9B25F
:1030000005F14C00984725E0EB685B68716B281D63
:1030100098471FE06B6A5B68B16B05F11C0098472D
:1030200018E0EB6B5B68F16B05F13400984711E039
:103030006B6D5B68316C05F14C0098470AE01B3AF8
:10304000042A06D8DFE802F02B2825220300F36AC1
:103050000193019B34B3B4FA84F24FF00043D340A0
:10306000DB4399B231821C40002DE8D01B3A042A80
:10307000F0D801A353F822F03130000823300008C3
:103080001530000809300008C32F0008736B019346
:10309000DFE7B36B0193DCE7F36B0193D9E7336CA4
:1030A0000193D6E703B0F0BD70B586B004460E4676
:1030B00043689D7905F0020501A801F01DFC60231D
:1030C000ADF80430039663689B7913F0040F16D0B3
:1030D0000023ADF806300423ADF808306DB10223AB
:1030E000ADF812300023ADF8163062685379032B27
:1030F0001FD8DFE803F015202A340023F0E701236E
:10310000ADF806300023ADF808303DB10223ADF82C
:1031100010304FF48073ADF81430E6E70023F6E783
:1031200001A9106801F0D6FA63680821186801F057
:10313000EDFB06B070BD01A9106801F007FB6368E4
:103140000821186801F0E9FBF3E701A9106801F014
:1031500049FB63680821186801F0E8FBE9E701A969
:10316000106801F089FB63680821186801F0E5FB2D
:10317000DFE742685379032B0FD8DFE803F002053D
:10318000080B10683430704710683830704710688A
:103190003C30704710684030704700207047000096
:1031A00008B50A46436858790249095C186801F075
:1031B000CDFB08BDBCC707082DE9F04190B004461F
:1031C0000F4615461E464268D2F80080106900F08E
:1031D000ADFAE06000286ED0037F1BB1002010B074
:1031E000BDE8F0810121404601F02AFC0121404662
:1031F00001F053FA63685B7901223049C95C4046AB
:1032000001F0A4FB0121404601F055FA00220A21F9
:10321000E06800F0B9FA234603222949E06800F08B
:10322000BDFAE368986800F0C5FBE3680021986880
:1032300000F0A9FCE368986800F0BCFB01A800F06E
:1032400091FC2046FFF795FF029005960023069318
:103250004FF4806207920A93022D1ED0042D23D0D2
:10326000012D00D0FEE7099308936368186900F008
:10327000C3FA01900397402304934FF400330B9358
:10328000E36801A9986800F041FCE368012210217D
:10329000986800F085FC0120A1E74FF400530993E2
:1032A0004FF400630893E0E74FF4804309934FF431
:1032B00080530893D9E7002091E700BFBCC70708F7
:1032C000852D000870B504460D46EFF311861023D6
:1032D00083F31288C3680021986800F054FC636887
:1032E00058790022124931F81010186801F0C6FB15
:1032F000E26813691F2B15D9203B5168202202FA7E
:1033000003F3CB60F6B286F31188E368A9B298683C
:1033100000F044FCE3680121986800F034FC0123CC
:10332000237470BD5168202202FA03F38B60E9E731
:10333000B4C7070838B5044603681A7DD2B2012A1B
:1033400011D0002593F82C20D2B2012A10D093F886
:103350004420D2B2012A11D093F85C20D2B2012AC3
:1033600012D0BDB938BD02221A754FF40075E9E7D5
:10337000022283F82C2045F48065E8E7022283F8D6
:10338000442045F40065E7E7022283F85C2045F419
:103390008055E6E763680021186801F07CF96368EE
:1033A00001222946186801F069FBDBE70C4B9842C3
:1033B00013D003F5806398420FD003F57053984201
:1033C0000BD003F58063984207D003F580639842E1
:1033D00003D0044B186840087047024B18687047C8
:1033E000000001406000002008B5034B1968034845
:1033F000FFF7DEFD08BD00BF88230020000001406C
:1034000010B5054C21680548FFF7D2FD216A044834
:10341000FFF7CEFD10BD00BF882300200000014053
:103420000040014010B5054C21680548FFF7C0FD7C
:10343000616A0448FFF7BCFD10BD00BF882300206F
:10344000000001400044014010B5054C21680548CA
:10345000FFF7AEFDA16A0448FFF7AAFD10BD00BF4B
:1034600088230020000001400048014008B5034BBC
:1034700059684FF08040FFF79BFD08BD882300206E
:1034800008B5034B99680348FFF792FD08BD00BFDC
:10349000882300200004004008B5034BD968034886
:1034A000FFF786FD08BD00BF88230020000800400C
:1034B00008B5034B19690348FFF77AFD08BD00BF43
:1034C00088230020000C004008B5034BD96903484D
:1034D000FFF76EFD08BD00BF8823002000040140F7
:1034E00010B5054CE1690548FFF762FDE16A044843
:1034F000FFF75EFD10BD00BF8823002000040140DF
:103500000018004010B5054CE1690548FFF750FD73
:10351000216B0448FFF74CFD10BD00BF882300203D
:1035200000040140001C004010B5054CE16905484D
:10353000FFF73EFD616B0448FFF73AFD10BD00BF89
:1035400088230020000401400020004008B523F03B
:10355000C7FF08BD10B524F093F8044600230222EB
:10356000162123F0FBFF0121204624F003F800215F
:103570002046FFF7EBFF10BD08B53020FFF7EAFF4C
:1035800008BD000038B5094B984200D038BD0C4644
:103590001546302024F074F80028F7D014F0010FFD
:1035A000F4D02946FFF7D2FFF0E700BF001001403A
:1035B00008B5034BDB680BB10148984708BD00BF55
:1035C000A807002008B5034BDB6A0BB102489847F7
:1035D00008BD00BFA8070020C807002008B5034B9E
:1035E000DB6C0BB10248984708BD00BFA80700205C
:1035F000E807002008B5034BDB6E0BB10248984783
:1036000008BD00BFA80700200808002008B5034B2C
:10361000D3F88C300BB10248984708BDA8070020AA
:103620002808002008B5034BD3F8AC300BB1024892
:10363000984708BDA80700204808002008B5034B9C
:10364000D3F8CC300BB10248984708BDA80700203A
:103650006808002008B5034BD3F8EC300BB10248E2
:10366000984708BDA80700208808002008B5034B2C
:10367000D3F80C310BB10248984708BDA8070020C9
:10368000A808002008B5034BD3F82C310BB1024831
:10369000984708BDA8070020C808002008B5034BBC
:1036A000D3F84C310BB10248984708BDA807002059
:1036B000E808002008B5034BD3F86C310BB1024881
:1036C000984708BDA80700200809002008B5034B4B
:1036D000D3F88C310BB10248984708BDA8070020E9
:1036E0002809002008B5034BD3F8AC310BB10248D0
:1036F000984708BDA80700204809002008B5034BDB
:10370000D3F8CC310BB10248984708BDA807002078
:103710006809002008B5034BD3F8EC310BB102481F
:10372000984708BDA807002088090020002300E072
:1037300001330F2B12D85A0109498958020B82EA2A
:10374000113212F0030FF3D1020A82EA112111F0B3
:103750000F0FEDD1024800EB431070470020704777
:10376000A807002008B54268064B9A4204D0012100
:10377000962027F0E1FF08BD0121952027F0DCFF0E
:10378000F9E700BF0060024070B504460E461546DA
:10379000FFF7E8FF2677657770BD0000F8B50546AE
:1037A0000F4614461E46FFF7DDFFEF60AE6195F948
:1037B0001430002B14DB2401E4B203F1604303F561
:1037C000614383F8004395F91430002B07DB03F0C5
:1037D0001F015B0901228A40054941F82320F8BDF9
:1037E00003F00F032401E4B2024AD454EBE700BF14
:1037F00000E100E014ED00E0C0B2024B53F82000FD
:10380000704700BF30C8070840F0BF6040F4003088
:10381000014BD860704700BF00ED00E021F060412F
:1038200021F07F010143014B9960704700ED00E0FA
:1038300010B4426822F0407222F4807291F804C001
:103840000B6843EA0C231343436083680C4A1A4015
:103850000B69CC6823438C68234391F805C043EA85
:103860004C0313438360C36A23F470030A7D013A57
:10387000D2B243EA0253C3625DF8044B704700BF03
:10388000FDF7FFC000230360037143718360C360D1
:10389000036101230375704710B408494B68084A57
:1038A0001A4003684468234384682343C068034381
:1038B00013434B605DF8044B704700BF0023014089
:1038C000E030FCFF0023036043608360C360704707
:1038D00021B1836843F0010383607047836823F05C
:1038E00001038360704710B509291DD9C468A1F18F
:1038F0000A0C0CEB4C0C4FF0070E0EFA0CFE24EAEF
:103900000E0403FA0CF32343C360062A1BD8436B4F
:10391000013A02EB82021F24944023EA040301FAD5
:1039200002F21A43426310BD046901EB410E4FF0ED
:10393000070C0CFA0EFC24EA0C0C03FA0EF34CEA0A
:1039400003030361E1E70C2A0CD8036B073A02EB8F
:1039500082021F24944023EA040301FA02F21A436C
:103960000263E0E7C36A0D3A02EB82021F2494402F
:1039700023EA040301FA02F21A43C262D3E783681E
:1039800043F080438360704721B1836843F48073C0
:1039900083607047836823F480738360704721B12C
:1039A000836843F4007383607047836823F4007373
:1039B00083607047036823F0010303600023036002
:1039C00043608360C3600361212343613C4B9842A1
:1039D0002DD03C4B98422ED03B4B984230D03B4BA5
:1039E000984232D03A4B984234D03A4B984235D034
:1039F000394B984236D0394B984237D0384B9842A1
:103A000039D0384B98423AD0374B98423CD0374B5C
:103A100098423ED0364B984240D0364B984241D0E7
:103A2000354B984242D0354B984243D07047103BBB
:103A30003D229A607047283B4FF474629A60704749
:103A4000403B4FF474129A607047583B4FF07462D9
:103A50009A607047703B2A4ADA607047883B294A6F
:103A6000DA607047A03B284ADA607047B83B4FF0F5
:103A70003D52DA607047103B3D229A607047283B08
:103A80004FF474629A607047403B4FF474129A602E
:103A90007047583B4FF074629A607047703B184A09
:103AA000DA607047883B174ADA607047A03B164AD5
:103AB000DA607047B83B4FF03D52DA60B6E700BFBE
:103AC000106002402860024040600240586002409E
:103AD0007060024088600240A0600240B86002400E
:103AE000106402402864024040640240586402406E
:103AF0007064024088640240A0640240B8640240DE
:103B00003D000020400F002000003D2010B403685D
:103B1000134A1A400B68CC6823434C6923438C69D1
:103B20002343CC6923430C6A23434C6A23438C6AA6
:103B300023434C6B23438C6B234313430360426941
:103B400022F00702CB6A0C6B2343134343610B69DA
:103B500043604B6883608B68C3605DF8044B7047BB
:103B60003F801CF00023036043608360C3600361F7
:103B700043618361C361036243628362C36203631F
:103B800043638363704721B1036843F0010303601B
:103B90007047036823F0010303607047416070477A
:103BA00011F0800F04D062B1436943F08003436198
:103BB000802911D052B1036801F01E011943016040
:103BC0007047436923F080034361F1E7036801F024
:103BD0001E0123EA01010160704700008379002B78
:103BE00036D010B4204B1A68016822EA01021A602C
:103BF0005A68016822EA01025A60027902F18042A1
:103C000002F59E3211680468214311609A680168C8
:103C100022EA01029A60DA68016822EA0102DA60A7
:103C20004379102B0AD003F1804303F59E331A68C1
:103C300001680A431A605DF8044B70470A4B9A68A2
:103C400001680A439A60DA6801680A43DA60F2E7B9
:103C5000037903F1804303F59E331A68016822EA71
:103C600001021A60704700BF003C0140014B5861DF
:103C7000704700BF003C0140054B1B69002B00DB77
:103C80007047034B034A5A6002F188325A60F7E7E3
:103C9000003C024023016745024A136943F0004398
:103CA00013617047003C0240014BD860704700BF71
:103CB000003C0240124BDB6813F4803F15D1104BDF
:103CC000DB6813F0100F12D10D4BDB6813F4807F0B
:103CD0000FD10B4BDB6813F0E00F0CD1084BDB6806
:103CE00013F0020F09D0082070470120704706200A
:103CF000704702207047072070470920704700BFB7
:103D0000003C024000B583B009238DF80730FFF76F
:103D1000D1FF8DF8070003E0FFF7CCFF8DF8070017
:103D20009DF80730DBB2012BF6D09DF8070003B0F9
:103D30005DF804FB70B5044649B101290DD0022994
:103D400002D04FF4407603E04FF4007600E0002606
:103D5000FFF7D8FF092803D070BD4FF48076F7E74E
:103D60000F4D2B6923F440732B612B691E432E6189
:103D70002B6923F0F8032B612869204340F00200EF
:103D800028612B6943F480332B61FFF7BBFF2B695C
:103D900023F002032B612B6923F0F8032B61DBE78F
:103DA000003C024070B505460C46FFF7ABFF092802
:103DB00000D070BD0A4E336923F440733361336918
:103DC00043F400733361336943F0010333612C60C2
:103DD000FFF798FF336923F001033361E9E700BF80
:103DE000003C024000230F2B4ED830B516E0C268CD
:103DF0001FFA83FE4FEA4E044FF0030E0EFA04FE44
:103E000022EA0E02C260C26891F807E00EFA0CFCCA
:103E100042EA0C02C26001330F2B34D801229A40CF
:103E20000C68A243F7D104684FEA430C032202FA5C
:103E30000CF26FEA020E24EA0202026002680C79B8
:103E400004FA0CF4224302600A79013AD2B2012A40
:103E5000CDD882680EEA0202826082684C7904FA48
:103E60000CF42243826044689DB24FF0010E0EFABA
:103E700005FE24EA0E04446044688A79AA4092B29E
:103E800022434260B3E730BD70474FF6FF730360D3
:103E90000023037143718371C371704700B501F052
:103EA00007039B0002FA03FCC908083150F82120DF
:103EB0004FF00F0E0EFA03F322EA030340F821300D
:103EC00050F8212042EA0C0240F821205DF804FB62
:103ED00008B5154B984206D0144B98420ED0144B9F
:103EE000984216D008BD01214FF4001000F0DAF915
:103EF00000214FF4001000F0D5F9F3E701214FF451
:103F0000800000F0CFF900214FF4800000F0CAF9E2
:103F1000E8E701214FF4000000F0C4F900214FF45C
:103F2000000000F0BFF9DDE70054004000580040F9
:103F3000005C004070B584B004460D468688B6B279
:103F400026F03F06B6B2684600F00AF902982D4BFB
:103F5000A3FB0023990C46EA9346A680228892B2DE
:103F600022F0010292B222802B68274A934222D883
:103F70008C465B00B0FBF3F39BB2032B00D8042309
:103F80000CF1010CA4F820C0A38323889BB243F05A
:103F90000103238023889BB223F4816323F002036F
:103FA000AA8869890A4313432380AB892A8913436A
:103FB000238104B070BDEE884BF6FF7296421BD091
:103FC00003EB830303EB8303B0FBF3F39BB243F4F4
:103FD0008043C3F30B020AB943F0010343F40043E7
:103FE0004FF4967201FB02F2084981FB0212921112
:103FF000013292B22284C7E703EB4303B0FBF3F331
:104000009BB2E6E783DE1B43A0860100D34D62101E
:1040100041F288330360002383804BF6FF72C28035
:10402000038143814FF480438381704729B1038822
:104030009BB243F001030380704703889BB223F0D7
:1040400001039BB20380704729B103889BB243F4FC
:1040500080730380704703889BB223F480739BB204
:104060000380704729B103889BB243F40073038037
:10407000704703889BB223F400739BB203807047A0
:1040800022B141F0010189B20182704701F0FE01C5
:10409000F9E729B103889BB243F48063038070473A
:1040A00003889BB223F480639BB20380704729B9D5
:1040B00003889BB243F080030380704703889BB260
:1040C00023F080039BB203807047B1F5006F06D0E8
:1040D00003889BB223F400639BB20380704703887C
:1040E0009BB243F400630380704701827047008AEB
:1040F000C0B27047838A9BB2028B43EA024323F02B
:104100007F4331EA030301D000207047012070474C
:1041100082B000230193009300900B0F019321F0D4
:104120007F41019B4BB1009B14330093009B1B68A4
:104130000B4207D0012002B07047090C009B1833D6
:104140000093F3E70020F6E721F07F41C94389B2ED
:1041500081827047014B1862704700BF00000E4219
:1041600010B4294B9B6803F00C03042B23D0082BBD
:1041700024D013B1254B036001E0244B0360224C93
:10418000A368C3F303132249CB5CDAB20368D340BC
:104190004360A268C2F382228A5CD2B223FA02F29E
:1041A0008260A268C2F342328A5CD2B2D340C3605A
:1041B0005DF8044B7047174B0360E0E7124B5968FA
:1041C0005A6802F03F0211F4800F12D0114BB3FB7A
:1041D000F2F30D4A5268C2F3881202FB03F30A4A53
:1041E0005268C2F3014201325200B3FBF2F30360A2
:1041F000C5E7064BB3FBF2F3034A5268C2F38812D9
:1042000002FB03F3EBE700BF003802400024F40098
:10421000A809002000127A0021B1054A136B184347
:1042200010637047024A136B23EA00001063704763
:104230000038024021B1054A536B18435063704760
:10424000024A536B23EA0000506370470038024073
:1042500021B1054A936B184390637047024A936BF0
:1042600023EA0000906370470038024021B1054AFC
:10427000136C184310647047024A136C23EA000061
:10428000106470470038024021B1054A536C18434E
:1042900050647047024A536C23EA00005064704730
:1042A0000038024021B1054A136A18431062704772
:1042B000024A136A23EA0000106270470038024085
:1042C00021B1054A536A184350627047024A536A43
:1042D00023EA00005062704700380240024A536FE0
:1042E00043F08073536770470038024018B1054BA4
:1042F000FF225A627047034BCA225A6253225A6203
:10430000704700BF0028004082B000230193054B96
:104310000193019B03EB80030193019B196002B0A1
:10432000704700BF5028004082B000230193054B26
:104330000193019B03EB80030193019B186802B07A
:10434000704700BF5028004008B52A4B98420FD054
:10435000294B984217D0294B98421FD0284B98429E
:1043600027D0284B98422FD0274B984237D008BDF2
:1043700001214FF48050FFF7A3FF00214FF480503C
:10438000FFF79EFFF3E701214FF48040FFF78AFF1C
:1043900000214FF48040FFF785FFE8E701214FF44B
:1043A0000040FFF77FFF00214FF40040FFF77AFF46
:1043B000DDE701214FF40050FFF782FF00214FF4A9
:1043C0000050FFF77DFFD2E701214FF48010FFF787
:1043D00077FF00214FF48010FFF772FFC7E701213C
:1043E0004FF40010FFF76CFF00214FF40010FFF7AF
:1043F00067FFBCE70030014000380040003C00404F
:104400000034014000500140005401402DE9F041CA
:10441000038803F441520F88B1F802808E88CD885A
:104420000C89B1F80AE0B1F80CC0CB8947EA08075B
:104430003E4335432C434EEA040E4CEA0E0C43EA4D
:104440000C0313430380838B9BB223F400639BB262
:1044500083830B8A0382BDE8F08129B103889BB274
:1044600043F040030380704703889BB223F040036E
:104470009BB203807047808980B27047818170470A
:104480000389194201D001207047002070470000C5
:1044900010B401F0030292000F2404FA02FC890810
:1044A000084B023153F8214024EA0C0443F8214020
:1044B00053F821409040044343F821405DF8044BF9
:1044C000704700BF0038014000B5B0F820C01FFAA7
:1044D0008CFC2CF0010C1FFA8CFCA0F820C0B0F86A
:1044E00018E01FFA8EFEB0F820C01FFA8CFC2EF0E8
:1044F000F30E1B019BB213434EEA030E2CF00A0C81
:104500004CEA010C4CF0010CA0F818E0A0F820C017
:104510005DF804FB00B5B0F820E01FFA8EFE2EF027
:10452000100E1FFA8EFEA0F820E0B0F818E0B0F8E8
:1045300020C01FFA8CFC090189B22EF4407E4FEA9C
:104540000E5E4FEA1E5E1B039BB243EA0E0312028D
:1045500092B21A432CF0A00C4CEA010C4CF0100C57
:104560000283A0F820C05DF804FB10B5048CA4B24F
:1045700024F48074A4B20484B0F81CE01FFA8EFE08
:10458000B0F820C01FFA8CFC090289B22EF0F30E9D
:104590001B019BB213434EEA030E2CF4206C4CEA31
:1045A000010C4CF4807CA0F81CE0A0F820C010BDE9
:1045B00000B5B0F820C01FFA8CFC2CF4805C1FFA08
:1045C0008CFCA0F820C0B0F81CE0B0F820C00903B3
:1045D00089B22EF4407E4FEA0E5E4FEA1E5E120252
:1045E00092B242EA0E021B039BB213432CF4005C0E
:1045F0004FEA4C4C4FEA5C4C41EA0C0141F48051CB
:10460000838301845DF804FB03889BB21B4A9042BC
:1046100012D002F5806290420ED0B0F1804F0BD0E4
:10462000A2F58032904207D002F58062904203D01A
:1046300002F58062904203D123F070034A8813434D
:104640000F4A904208D002F58062904204D023F4D1
:1046500040739BB20A89134303804B68C3620B8883
:104660000385064B984203D003F58063984201D13D
:104670008B7A038601238382704700BF00000140CC
:10468000001000404FF0FF3343600023038003819C
:104690004380837270474162704729B103889BB29F
:1046A00043F080030380704703889BB223F08003AC
:1046B0009BB20380704729B103889BB243F001038A
:1046C0000380704703889BB223F001039BB20380F1
:1046D0007047000010B5038C9BB223F001039BB21E
:1046E0000384038C9BB2B0F804E01FFA8EFE028BA9
:1046F00092B222F073020C88224323F00203B1F835
:104700000CC043EA0C0C4B8843EA0C030E4CA0424D
:1047100003D004F58064A0420FD123F00803CC89B4
:10472000234323F004038C8823432EF4407E0C8A19
:104730004EEA040E4C8A44EA0E0EA0F804E002830E
:104740008A684263038410BD0000014000B5038CF9
:104750009BB223F010039BB20384038C9BB2B0F88E
:1047600004E01FFA8EFEB0F818C01FFA8CFC2CF47F
:10477000E64C0A88120292B24CEA020C23F02003A3
:104780008A89120192B21A434B881B019BB21343D0
:10479000134A904203D002F58062904217D123F071
:1047A0008003CA89120192B2134323F040028B881E
:1047B0001B019BB213432EF4406E0A8A920092B200
:1047C0004EEA020E4A8A920092B242EA0E0EA0F817
:1047D00004E0A0F818C08A68826303845DF804FBD3
:1047E0000000014000B5038C9BB223F480739BB2A0
:1047F0000384038C9BB2B0F804E01FFA8EFEB0F87D
:104800001CC01FFA8CFC2CF0730C0A884CEA020CBA
:1048100023F400738A89120292B21A434B881B0256
:104820009BB21343134A904203D002F58062904238
:1048300017D123F40063CA89120292B2134323F4FE
:1048400080628B881B029BB213432EF4405E0A8A5F
:10485000120192B24EEA020E4A8A120192B242EA62
:104860000E0EA0F804E0A0F81CC08A68C26303849E
:104870005DF804FB0000014010B5038C9BB223F4EB
:1048800080539BB20384038C9BB2B0F804E01FFA00
:104890008EFE828B92B222F4E64C0A88120292B209
:1048A0004CEA020223F40053B1F80CC04FEA0C3C6E
:1048B0001FFA8CFC43EA0C0C4B881B039BB243EAA7
:1048C0000C030C4CA04203D004F58064A04209D133
:1048D0002EF4804EB1F810C04FEA8C1C1FFA8CFCED
:1048E0004EEA0C0EA0F804E082838A680264038416
:1048F00010BD00BF0000014000230380438083807F
:1049000083608381C381038243827047038B9BB2A0
:1049100023F008030B4303837047038B9BB223F4FC
:104920000063090289B20B4303837047838B9BB2F8
:1049300023F008030B4383837047838B9BB223F4DC
:104940000063090289B20B438383704701238B40C4
:104950009BB2B0F820C0DB439BB203EA0C03038494
:10496000038C9BB28A4092B21343038470470023A6
:104970000380438001228280C38003817047038BC0
:104980009BB223F00C039BB20383038B9BB20B43BC
:1049900003837047038B9BB223F440639BB2038372
:1049A000038B9BB2090289B20B4303837047838B4D
:1049B0009BB223F00C039BB28383838B9BB20B438C
:1049C00083837047838B9BB223F440639BB28383C2
:1049D000838B9BB2090289B20B438383704738B53E
:1049E00005460C460B886BB1042B15D0082B1DD047
:1049F0000B898A884988FFF7DBFDE1882846FFF7A5
:104A0000E1FF38BD0B898A884988FFF75DFDE188A1
:104A10002846FFF7B4FFF4E70B898A884988FFF737
:104A200079FDE1882846FFF7B5FFEAE70B898A8818
:104A30004988FFF79AFDE1882846FFF7B8FFE0E7CD
:104A400049B1B0F844306FEA43436FEA53439BB235
:104A5000A0F844307047B0F84430C3F30E03A0F818
:104A60004430704722B183899BB2194381817047DA
:104A70008389C94389B219408181704722B18389F2
:104A80009BB21943818170478389C94389B2194018
:104A90008181704730B585B004460D46038A9BB2CC
:104AA00023F44053CA881343038283899BB223F4BF
:104AB000B05323F00C03898828896A8901430A438B
:104AC0001343A381A38A9BB223F44073AA8913439F
:104AD000A3826846FFF744FB1F4B9C4205D003F5B9
:104AE00080639C4201D0029B00E0039BA28912F4E8
:104AF000004F1FD103EB830303EB83032A6892006B
:104B0000B3FBF2F3154AA2FB031252091101642010
:104B100002FB1033A28912F4004F14D11B0132336F
:104B20000E4AA2FB0323C3F343130B439BB223811F
:104B300005B030BD03EB830303EB83032A68520007
:104B4000B3FBF2F3DEE7DB003233044AA2FB0323BC
:104B5000C3F342130B43E9E7001001401F85EB51FB
:104B600029B183899BB243F40053838170478389C1
:104B70009BB223F400539BB283817047C1F30801B9
:104B80008180704729B1838A9BB243F008038382F6
:104B90007047838A9BB223F008039BB283827047DD
:104BA000C1F3421C01F01F01012303FA01F19C45EE
:104BB00008D0BCF1020F07D014303AB10368194392
:104BC000016070470C30F8E71030F6E7036823EA1D
:104BD0000101016070470388194201D0012070472C
:104BE00000207047C1F3421201F01F0C012303FAA9
:104BF0000CF3012A0FD0022A11D0828A92B21340FC
:104C0000090A012202FA01F1028892B20A4053B164
:104C10005AB900207047828992B21340F0E7028AA5
:104C200092B21340ECE70020704701207047090A58
:104C300001238B409BB2DB439BB2038070477047DC
:104C4000704701207047012380F84930704708B54C
:104C500002F056F908B9002008BD02F047F908B182
:104C60000120F9E70020F7E770B590F848400023ED
:104C700080F848300CB9012070BD054602F040F9BB
:104C800008B90020F8E702F031F90028F9D026F041
:104C9000D1FF0646343554B12146284602F0D4F8F7
:104CA000241A054426F0C6FF801B3228F3D9B4FA33
:104CB00084F04009E0E708B5002280F84920FFF7BA
:104CC000D3FF08BD08B590F848305A1CD2B280F81E
:104CD0004820034483F8341090F849300BB1132A6C
:104CE00001D9FFF7C1FF08BD70B50D461446FFF7A7
:104CF000AEFF00B970BD26F09DFF0646002CF9DD21
:104D00002146284602F0A0F8241A054426F092FF16
:104D1000801B3228F2D9EDE700B583B0012101A84C
:104D200002F098F80028F9D09DF8040003B05DF86F
:104D300004FB08B502F04EF808BD08B502F0A6F86D
:104D400008BD000000B583B000F02CF81B2022F055
:104D500097FC00230122112122F000FC1C2022F0EC
:104D60008FFC00230222112122F0F8FB054B009357
:104D7000054B064A0121064801F02DFA03B05DF803
:104D800004FB00BF900A0020E8090020740A0020FC
:104D9000843500200148024B03607047C023002087
:104DA00058C9070810B51C2022F06AFC04461121DE
:104DB00022F0E0FB204622F0B4FBC82027F013F8D5
:104DC000204622F0A2FB10BDC3684FF0FF325A60AC
:104DD000C3686FF080425A61C368014A9A617047A4
:104DE0000008008030B583B00546002401940320FC
:104DF00001F012FFEB681A69019201340E4A9442E5
:104E000017D8019A002AF2DA019A42F001020192BF
:104E1000019A1A610023EA68126901920133064A75
:104E2000934203D8019A12F0010FF4D1032001F04C
:104E3000F3FE002003B030BD400D030010B4C47871
:104E400074B903334FEAA30C323200EB820080685E
:104E5000002303E051F8042B026001336345F9D3CA
:104E600000205DF8044B704710B403460846D11C7F
:104E70008910D3F8D040002303E0226840F8042BC7
:104E800001338B42F9D35DF8044B704730B40023F3
:104E9000C370012383704023838001290BD0E9B9BB
:104EA0000023C3720C230370062343704FF4A063E6
:104EB000C3802B4C0CE00123C3720823037004232E
:104EC00043704FF4A073C380022303724FF0A044D9
:104ED000C46004F500630361002311E00024F7E7D8
:104EE00004EB431202F51065191D00EB81018D6082
:104EF00002F5306203F1140100EB81014A600133D5
:104F000042789A42ECD804F58063436104F58863E3
:104F1000C0F8CC30002309E004EB431101F5A06197
:104F200003F1220200EB82029160013390F800C08D
:104F30009C45F1D8002309E004EB033101F58051D1
:104F400003F1320200EB8202916001339C45F3D8F9
:104F500004F56064C0F80C41002030BC704700BF0D
:104F60000000044010B50446037A012B1DD1C2682D
:104F7000936B6FF31043417A09B143F48013936349
:104F8000E268D3686FF386136FF396536FF3514360
:104F90006FF3D343D3602046FFF724FFE378012B60
:104FA00015D1E3682A229A6011E0C268D36843F001
:104FB0004003D360FFF716FF4FF40413627A0AB17F
:104FC0004FF44413E2689363142001F037FEE37852
:104FD000012B01D0002010BDE2689368052161F328
:104FE000440343F020039360F4E7C268936843F0FE
:104FF0000103936000207047C268936823F00103A7
:10500000936000207047000000B583B00023019337
:10501000019A42F020020192019A61F38A120192F0
:10502000C26801991161C268126901920133074A8D
:10503000934203D8019A12F0200FF4D1032001F01B
:10504000EBFD002003B05DF804FB00BF400D030042
:1050500000B583B000230193019A42F0100201923F
:10506000C26801991161C268126901920133074A4D
:10507000934203D8019A12F0100FF4D1032001F0EB
:10508000CBFD002003B05DF804FB00BF400D030022
:1050900008B5C268D3686FF35D736FF39E7301291F
:1050A00003D021B943F0804301E043F00053D360C3
:1050B000322001F0C3FD002008BDC368586900F02C
:1050C0000100704708B5FFF7F8FF013818BF01204D
:1050D00008BDC36858699B69184070470269136826
:1050E00061F301031360704738B505460024C368B7
:1050F0009C61C3686FF080425A61FFF765FEEB78F0
:1051000003B9102444F4701444F4605444F00804C7
:10511000EA68936923EA04031C439461002038BDC4
:1051200010B504460021D0F80C31196002691368EB
:1051300061F3CC231360C37A012B12D010212046D7
:10514000FFF762FF2046FFF783FF22690023136108
:105150002269536122694FF0FF3191612269D36165
:1051600024E00321FFF7BAFFE36880225A62E36874
:1051700002F580029A62E36802F14012C3F804214A
:10518000E2684FF4A073C2F80831E268C2F80C314B
:10519000D4E74FF0904111601A1D04EB8202916830
:1051A000002008619268FF219160013362789A4281
:1051B00008D91A1D04EB8202926811680029E8DB05
:1051C0000021E8E700230DE04FF09041116003F16A
:1051D000140204EB82025168002008615268FF212A
:1051E0009160013362789A4209D903F1140204EB09
:1051F0008202526811680029E6DB0021E6E7226995
:10520000136943F480731361E378012B04D02046C3
:10521000FFF76AFF002010BD2369014A1A63F6E711
:105220000301810003699B68C3F34103022B07D884
:10523000DFE803F0020604000320704701207047F6
:105240000220704703699B6882691168C3F34103B8
:10525000022B11D004D9032B04D06FF30A0103E011
:10526000012BFAD86FF30A0111600269536843F405
:105270008073536000207047032363F30A01F3E750
:1052800010B54FF0000E4A78012A23D00B7803F1B5
:10529000140C00EB8C0CDCF8044001229A4062F301
:1052A0001F4E236813F4004F0DD18A6862F30A037E
:1052B000CA7862F39343CA8862F3995343F08053E8
:1052C00043F4004323600269D36943EA0E03D361C8
:1052D000002010BD91F800C00CF1040200EB820226
:1052E0009468012303FA0CF363F30F0ED9E7034626
:1052F0004FF0000C4A78012A11D0087800F114010F
:1053000003EB810149680122824062F31F4C0020B7
:1053100008601A69D36923EA0C03D36170470878DF
:10532000011D03EB81018968824062F30F0CEEE7F7
:1053300070B54B78012B25D00A7802F1140300EBED
:1053400083035C68236825694C69002C6FD18C68E5
:1053500064F31205012464F3DC45143200EB82028D
:1053600052681561C278012A74D0CA78012A79D0AE
:1053700043F004430A78143200EB82004268136061
:10538000002070BD0B78043300EB83039C68236816
:1053900025694A69B2B96FF31205012262F3DC454F
:1053A0002561C278012A1CD0CA78012A20D04A6916
:1053B000F2B10C78012202FA04F405696A6B224307
:1053C0006A6315E062F312058E683244013AB2FB5B
:1053D000F6F262F3DC45CA78012AE1D162F35E7528
:1053E000DEE70A78043200EB820292680C695461AD
:1053F000CA78012A10D043F004430A78043200EB43
:10540000820292681360CB78012BB9D18B8A0A781B
:10541000C968FFF713FDB3E70269926812F4807F51
:1054200002D143F00053E6E743F08053E3E78E6890
:105430003444013CB4FBF6F4C4F3090464F3DC45E2
:10544000C6F3120606FB04F4C4F3120464F3120557
:105450004C6182E70A78143200EB820252680C69D0
:10546000546182E74A7912B143F0005380E743F078
:1054700080537DE770B44B78012B22D00A7802F17B
:10548000140300EB83035B681C681B694D69002DE6
:1054900049D18D6865F3060343F40023143200EB11
:1054A000820252681361C378012B43D044F0044454
:1054B0000B78143300EB830043681C60002070BC41
:1054C00070478269146813694D69C5B96FF30603A3
:1054D00043F400231361C378012B1CD044F004442F
:1054E0001460C378002BE9D14B69002BE6D00A7811
:1054F000012393400269516B0B435363DEE78E68CF
:10550000B54205D94E6166F3060343F40023E1E793
:1055100065F30603F9E70B78043300EB83039B681C
:105520000D695D61DAE78D684D6165F3060343F44B
:105530000023B3E70B78143300EB83035B680A693D
:105540005A61B3E74B78012B0AD00B78143300EB88
:1055500083004268136843F400131360002070470F
:105560000B78043300EB830082681368002B03DBA5
:1055700043F400131360F1E743F08043F8E74B78FE
:10558000012B0FD00B78143300EB830040680268C6
:105590006FF35552CB78023BDBB2012B08D9026086
:1055A000002070470B78043300EB83008068EEE73F
:1055B00042F08052F3E703699869DB691840000CF8
:1055C0007047143100EB81014B689A680369586990
:1055D0001040704703699869DB69184080B27047D2
:1055E000436D084A1A61C378012B00D0704700F25E
:1055F000CC52436D5A61436D1A684FF080221A6095
:10560000F4E700BF18000860837A63B103699B6800
:1056100013F0010F07D0D0F80C2113686FF341038A
:105620006FF300031360704738B50446FFF72EFC94
:10563000012384F81231002284F8142115E002EBD2
:10564000820304EBC303012183F81D1183F81C219D
:10565000A3F82221002183F81F114020C3F8240160
:10566000C3F82811C3F83011013260789042E6D8AF
:10567000002214E002EB820304EBC303002183F851
:10568000751383F87423A3F87A2383F877134025DE
:10569000C3F87C53C3F88013C3F8881301329042D7
:1056A000E8D82046FFF7A8FC2046FFF75BFC002166
:1056B0002046FFF7EDFC2046FFF732FD2046FFF7BE
:1056C00094FC38BD10B58E464CB2002C1BDB01F0AB
:1056D0007F0C0CEB8C0C4FEACC0C0CF55C7C8444FE
:1056E0000CF104010EF07F0E81F800E0E40F4C7025
:1056F0008A60CB700CB1A1F806E0022B0FD0FFF747
:10570000BFFD002010BD01F07F0C0CEB8C0C4FEAAC
:10571000CC0C0CF58C7C84440CF10401E2E70023F2
:105720000B71ECE708B50A464FFA81FCBCF1000F9B
:1057300013DB01F07F0303EB8303DB0003F55C73F2
:105740000344191D02F07F020A704FEADC7C81F8E5
:1057500001C0FFF7CCFD002008BD01F07F0303EB83
:105760008303DB0003F58C730344191DEAE710B5CE
:1057700001F07F0404EB8401C90001F55C71014470
:10578000043104EB840C00EBCC0CCCF88023CCF877
:1057900088330023CCF88C338CF875338CF8744341
:1057A000C378012B04D034B9FFF764FE002010BD8C
:1057B000CCF88423F7E7FFF7BBFDF7E710B501F05E
:1057C0007F0404EB8401C90001F58C7101440431AC
:1057D00004EB840C00EBCC0C4FF0010E8CF81DE1B7
:1057E0008CF81C41CCF82821CCF82C210022CCF8D4
:1057F0003421CCF830311CB9FFF73CFE002010BD3D
:10580000FFF796FDFAE708B50A464FFA81FCBCF1AE
:10581000000F13DB01EB8103DB0003F55C73034432
:10582000191D01238B7002F07F020A704FEADC7CA5
:1058300081F801C0FFF786FE002008BD01F07F035C
:1058400003EB8303DB0003F58C730344191DE8E7C6
:1058500010B50A464FFA81FCBCF1000F13DB01EBD7
:105860008103DB0003F55C730344191D00248C7075
:1058700002F07F020A704FEADC7C81F801C0FFF77A
:105880007EFE204610BD01F07F0303EB8303DB00A7
:1058900003F58C730344191DE8E708B511F0800F78
:1058A00003D1FFF7D5FB002008BD01F07F01FFF712
:1058B000ABFBF8E74FF0000C61F30A1C02691368B8
:1058C00043EA0C031360704710B50446837A3BB17A
:1058D000D0F80C2113686FF341036FF300031360DA
:1058E0002269536823F001035360054B1B689B69D1
:1058F00020469847E3684FF000425A61012010BDEE
:10590000E409002010B582B0044600238DF807306A
:1059100090F812318DF80730164B1B685B69984779
:1059200023699968E3684FF400625A61A37A33B13E
:1059300011F0010F03D094F81531012B02D0012092
:1059400002B010BD9DF80730DBB2032BF7D1D4F8BD
:105950000C21136843F001031360D4F80C21136881
:1059600043F003031360044A136943F00603136111
:10597000E5E700BFE409002000ED00E010B50446B3
:10598000044B1B68DB689847E36808225A610120D2
:1059900010BD00BFE409002010B50446044B1B688D
:1059A000DB699847E3684FF480125A61012010BD0B
:1059B000E409002010B50446044B1B681B6A984795
:1059C000E3684FF400125A61012010BDE409002081
:1059D00010B402691469536BCB40DB01DBB2234383
:1059E000043100EB81008268906818405DF8044B38
:1059F000704700002DE9F0418046FFF7DCFD0446CA
:105A000000252CE005F1140308EB83035B6819699A
:105A100005EB850308EBC303D3F87C23C1F3120124
:105A2000521AC3F88C2332E016F0020F06D0022679
:105A300005F1140308EB83035B689E6016F0080F02
:105A40000BD01E4B1B689B684046984705F114031A
:105A500008EB83035B6808229A600135640854B33D
:105A600014F0010FF9D0EFB239464046FFF7A9FD17
:105A7000064610F0010FD7D0012605F1140308EBFC
:105A800083035B689E6098F80330B342BAD00B4B37
:105A90001B681B6839464046984798F80330012B2D
:105AA000C2D1002DC0D198F81131052BBCD1404690
:105AB000FFF796FDB8E70120BDE8F081E40900207A
:105AC0002DE9F04107460C4601EB810300EBC303CF
:105AD000D3F83021D3F83411521AD3F82431934239
