:020000040800F2
:10000000000002201D460808B14608083DDE03082E
:10001000B1460808B1460808B146080800000000CB
:10002000000000000000000000000000B1460808C9
:10003000B146080800000000B1460808F1BB0208FC
:10004000B1460808B1460808B1460808B146080894
:10005000B1460808B146080825930208299302080A
:100060002D9302083193020835930208295A01089A
:100070003D5A0108515A0108655A0108795A010888
:100080008D5A0108A15A0108B1460808B14608086E
:10009000B1460808B1460808B14608083993020875
:1000A0002D64010851630108416401083D630108A2
:1000B000796301088D630108A1630108454C0108BB
:1000C000394C0108794C01086D4C0108B14608080B
:1000D000B14608081967010825670108316701085A
:1000E0003D930208B1460808B14608085564010866
:1000F000DD63010805640108C9630108B55A0108F8
:10010000B1460808D9680108B5630108B146080876
:10011000B14608083D670108B1460808697A010838
:10012000C95A0108DD5A0108F15A0108055B0108A6
:10013000195B0108B1460808B1460808B14608082D
:10014000B1460808B1460808B1460808C569010863
:100150002D5B0108415B0108555B010849670108F7
:10016000AD4C0108A14C0108B1460808B146080889
:10017000B1460808B1460808B1460808000000006A
:10018000B1460808B14608085567010861670108CB
:10019000B1460808B1460808B1460808B146080843
:1001A0000000000000000000B1460808B146080841
:1001B000B1460808B1460808B1460808B146080823
:1001C000B1460808B146080800000000B14608081A
:1001D000B1460808B1460808B1460808B146080803
:1001E000B1460808B1460808B1460808B1460808F3
:0801F00000000000B146080800
:0801F800DC3E080001000000DC
:10020000981407200208000006003422B8140720C2
:10021000020A000108024744D8140720020F000018
:1002200005035B3DF8140720011300000001760070
:100230001815072001140100000177003815072068
:10024000011900000001760058150720011A00006E
:1002500000001E00781507200120000000000D009E
:10026000981507200121000000000E00B815072096
:100270000122000000001E00D8150720011D00000B
:1002800000000C00F8150720011E000000000E0001
:1002900018160720011F000000000C003816072068
:1002A000012D01000001180058160720012500004B
:1002B00000014800781607200126000000014900CF
:1002C000981607200127000000014A00B8160720F1
:1002D0000128000000014B00D8160720012900006A
:1002E00000014C00F8160720012A000000014D0013
:1002F00018170720012B000000014E0038170720B7
:10030000012C000000014F005817072001300000A9
:1003100000012900781707200131010000012900A0
:10032000981707200132010000017000B81707205C
:100330000133010000015200D817072001340100E9
:1003400000012800F8170720022E010000012C00F0
:10035000181807200137000000003C00381807205B
:10036000013500000000400058180720013A000045
:100370000000200078180720013B00000001290040
:020000040801F1
:10000000836B1A6C12F0500F21D11A6C196842F4EC
:1000100000721A648A6812F0405F1BD19A69CAB9EB
:10002000CA6A12F4700F02D08A68500512D44A6866
:1000300022F020024A601A6C22F480721A641A6C50
:10004000D20407D41A6C42F001021A6470479B6B09
:10005000DB6C1847704700BF704700BF836B4022BE
:100060001A645A6C42F004025A647047002280F805
:10007000422090F84130292B04D090F841302A2BAF
:1000800018D070474FF0280C2123016880F841C038
:10009000036390F8413003EA0C0363450B680CBF1F
:1000A0006FF0420C6FF0F20C03EA0C030B6080F867
:1000B0004020704710B422232824016880F8414072
:1000C000036390F841302340A3420C680CBF6FF0EB
:1000D00044036FF0F40323405DF8044B0B6080F899
:1000E000402070470023202210B4164C4363C462A2
:1000F000036380F8412080F842304B0711D5436AF2
:100100000268591C526A41621A70038D4BB1428DCC
:10011000013B013A038593B24385436C43F00403EA
:1001200043640368102490F84120002190F8412096
:100130001A6822F0FE021A60DC615DF8044B80F858
:10014000401070470000FFFF00224F4B10B480F8B2
:100150004220C3624285436C1943416490F84130A8
:10016000282B07D090F84130292B03D090F841304C
:100170002A2B2DD190F841204FF0280C90F84130D7
:10018000002402F0280203F02803282A0CBF46228C
:10019000F622282B03680CBFD1436FF0F6011A68D2
:1001A0000A401A60394A80F841C0426304631A6801
:1001B000196812F4804223D111F4004133D190F830
:1001C0004130602B58D080F840105DF8044B7047E8
:1001D000036890F8412090F841201A6822F0FE024E
:1001E0001A6090F84120602A02D0202280F8412035
:1001F0000022026342631A68196812F48042DBD05D
:1002000021F48041826B224C19600023146580F830
:10021000403092F83530022B18D0802310465DF81C
:10022000044B5365BCE11C68C16B24F400441C60A2
:10023000174B0B6580F8402091F83530022B10D019
:10024000802308465DF8044B4B65A9E1116805233E
:1002500082F835300B685DF8044B23F001030B6026
:1002600070470A68052381F8353013685DF8044B40
:1002700023F0010313607047202380F8401080F8BA
:1002800041305DF8044B70470000FFFF1103010887
:10029000A105010803689A69196810B4D4052FD51F
:1002A0000C061FD5416C4FF4807441F0010141648C
:1002B0005105DC6129D5416C4FF48064920541F011
:1002C00008014164DC6106D5426C4FF4007142F0D4
:1002D00002024264D961436C13F00B0F0CD15DF83C
:1002E000044B70475405F6D49405F4D50906EBD4B5
:1002F000436C13F00B0FF2D0416C5DF8044B23E715
:100300005405F1D50906D6D4E5E79205DCD4E2E739
:1003100090F84030012B00F0E0800123F0B50D464D
:1003200083B0044680F84030E90623D5D30621D5B2
:10033000438D9BB2002B5AD1C36AB3F1007F6CD0BE
:10034000C36AB3F1007F68D0E36A13F5803F04D03D
:1003500094F84130292B00F00D8123681021D961D8
:10036000A90601D5930663D40023184684F84030CB
:1003700003B0F0BD68071AD42B0701D517073ED488
:10038000AE07EDD59007EBD5638D9BB2002B00F047
:10039000A680636A591C616221681B788B62638D39
:1003A000218D013B01399BB221856385D8E7510737
:1003B000E2D5638D9BB263B1636A2168581C496AB8
:1003C00060621970638D218D013B01399BB22185DB
:1003D0006385638D9BB2002BC2D1E36A13F5803F26
:1003E000BED020460192FFF741FE019AB8E70368AC
:1003F0001021D961436C43F004034364B0E794F8DF
:10040000413003F02803282B236800F09080082156
:10041000D961002384F84030A2E794F84130282BBA
:1004200092D1294620460192FFF75CFE019A97E798
:100430002368202108225848D961DA6194F84120C4
:1004400094F84120196821F0FE011960596841F4BF
:10045000004159605A6802405A609A69970701D56D
:1004600000229A629A69D60703D49A6942F001027F
:100470009A611A68500425D41A68110422D4628D36
:1004800092B21AB1626C42F0040262646A0707D544
:10049000626A5B6A511C61621370238D002B2DD13F
:1004A0000023236384F84230626C6363002A30D1F6
:1004B000E36A3A4A93421CD194F84130202384F8ED
:1004C000413051E794F84120212A0CBFA26BE26B26
:1004D0001268526892B26285D1E702207047E36ADF
:1004E000B3F1807F3FF47DAFE36A002B3FF479AF37
:1004F00036E72023E26284F8413035E7628D013B24
:10050000013A238593B26385636C43F0040363640B
:10051000C6E7616C2046FFF717FE94F84130282BA0
:100520007FF422AF29462046FFF7DCFD1CE7E06898
:10053000996902289E699968DF6813D1C1F3C211D5
:1005400081EA164111F006010CD1A06C0130A064C3
:10055000A06C02287FF404AF0820A164D86184F85D
:100560004010FDE6196821F0B8011960002384F8F5
:100570004030F5E623681021D96199698F0701D5CC
:10058000002199629969CE073FF52BAF996941F037
:100590000101996125E700BF00E800FE0000FFFFB0
:1005A000836B00211868426830B442F40042D3E9FA
:1005B0000E5442602965216593F84120602A02D1DA
:1005C000202283F8412030BC704700BF3C4AB0F184
:1005D000804F0368A0EB0202B2FA82F270B44FEAD5
:1005E000521210D07AB9374D374CA04218BFA842EA
:1005F0002BD1364C23F070034D68041B2B43B4FA07
:1006000084F4640908E04C6823F0700323432F4C02
:10061000041BB4FA84F46409CD6823F440732B43BB
:100620004D6923F080032B4303608B68C3620B6822
:10063000836222B91CB9012370BC436170470B6906
:100640000363012370BC4361704704F58064A042DA
:1006500024D004F57844A04220D01D4C1D4DA0426A
:1006600018BFA8420CBF0124002427D01A4EA5F5BC
:100670009435A84218BFB042CED0184CA0421DD02D
:1006800004F58064A04219D04D6923F080038C6882
:100690000A682B430360C4628262CCE74D6823F092
:1006A00070030A4C2B430E4D041BA842B4FA84F489
:1006B0004FEA5414B0D0002CAED1CEE70024ABE703
:1006C0000000014000040040000800400004014018
:1006D000004401400040014000480140001C00402F
:1006E000000C00400022836BA3F85A20A3F852208C
:1006F000704700BF436ADA0710B406D50168846A00
:100700004A6822F4003222434A609C0706D50168F9
:10071000C46A4A6822F4803222434A60590706D5E7
:100720000168046B4A6822F4802222434A601A0757
:1007300006D50168446B4A6822F4004222434A60AD
:10074000DC0606D50168846B8A6822F48052224355
:100750008A60990606D50168C46B8A6822F4005243
:1007600022438A605A060AD50168046C4A68B4F5C7
:10077000801F22F4801242EA04024A600BD01B065A
:1007800006D50268816C536823F400230B43536041
:100790005DF8044B70474A68446C22F4C00222435F
:1007A0004A60ECE7036942681F2B70B430D9A3F1AB
:1007B000200520215468A940214227D08169087C66
:1007C000022835D048681F2BC9681B4D4E68016947
:1007D000C1F30324194951F8244015F804C00568F1
:1007E00056F80C4024F0010446F80C40407901EB27
:1007F0004001098C01F4F050E96821EA0001E96048
:1008000010D9A3F1200120238B40D36070BC704726
:100810002021146899402142F8D08169087C02287F
:10082000D0D105E0202101FA03F370BC936070473A
:1008300000200874C6E700BF80DB080808D9080854
:10084000D0E907239A4201D3D01A7047C0681044F8
:10085000C01A7047D0E909239A4204D30069D31A19
:100860000138C01A7047006902440138D31AC01A0F
:10087000704700BFD0E90902101AB0FA80F04009B1
:10088000704700BF016A034640694A1C405CD96852
:100890008A4228BF00221A62704700BF436A8269F9
:1008A00010B4D154436A416B046901330A68A3420E
:1008B00028BF00235DF8044B42F0800243620A60C7
:1008C000704700BF436BD86910F0100002D01022AF
:1008D00001201A62704700BF4A1C4FF4003310B465
:1008E00008BF4FF0800C4B4C18BF4FF0450C00E098
:1008F000FBB1626B013B12EA0C0FF9D0002923DD3A
:10090000626B52071CD403291ED0424A536B13F06A
:10091000010320D1022908D01369DBB283421ED122
:10092000012953692AD006291BD000205DF8044B09
:100930007047002904DD636B5C0701D40329E4D10F
:1009400003205DF8044B7047002B5DF8044B14BF87
:1009500000200320704701205DF8044B70471020F1
:10096000EFE713F4604F01D12B4A1360990431D49F
:100970005A04F4D41B04D8D50F20E2E727481840C6
:100980000028DED0002B29DB5C0025D4980029D478
:10099000D90025D41A0129D45C0125D4D8012FD43B
:1009A0001902E9D45A02DAD49C0227D4D8022FD4EF
:1009B00019030FD45A0329D49C0325D4D80321D476
:1009C000190419D45A0415D49C0411D41807ACD5B1
:1009D0001A20B6E71320B4E70920B2E71C20B0E7DD
:1009E0000B20AEE70A20ACE70D20AAE70C20A8E711
:1009F0001920A6E71820A4E71720A2E71120A0E7F6
:100A00000E209EE716209CE715209AE7142098E711
:100A1000122096E7002C0140D028022008E0FFFDBC
:100A2000F8B5154DEB6A93B1696B0446012914D0F2
:100A3000124B40F2FF500021DA6A22F00802DA621B
:100A40009863E962236823F001032360F8BD0B4A31
:100A5000D36B43F48073D363F8BD084E40F2FF5765
:100A600000230C20B763B36040F24C43F360FFF700
:100A700033FFB763DCE700BFD0280220002C014021
:100A8000B24BD3E9011270B58C0FC2F3072C100ED4
:100A900083F83840C1F38364000183F83940C1F31F
:100AA000016483F83A40C1F3074483F83B40C1F343
:100AB0000724C9B283F83C40C2F3035483F83D10C5
:100AC000D887C2F3C030D98F89B22143C2F303441F
:100AD000D987C2F3403183F84040C2F3803483F8B1
:100AE0004100002083F8424083F84310C2F30031F4
:100AF00083F8441093F8901083F84500012940F2E0
:100B0000D880022900F0B180D9682A204FEA4C0C25
:100B100083F85140C1F3C01201F07F010CF07E0C4C
:100B200083F852C04FF0010C93F8524014431A69F5
:100B300083F85240D40F83F85310910D83F854403A
:100B4000C2F3417401F00C01C2F3815583F85540A2
:100B5000C2F3826483F8564083F8571093F8571015
:100B60005C69294383F85710C2F3405183F8581049
:100B7000002183F85910C2F3004183F85A10C2F3E0
:100B8000C03183F85B10C2F3803183F85C10C2F38C
:100B9000403183F85D10C2F3003183F85E10C2F378
:100BA000812183F85F10C2F30121C2F3460283F86A
:100BB0006010C4F3074183F86120220E090283F814
:100BC00062C083F86420C4F30722A3F866102406E9
:100BD000B3F8661089B21143A3F8661099699C6650
:100BE0000C0E9A6E42EA04429A660A0A9C6E02F45D
:100BF0007F422243C1F30724C9B29A669D6EDA6927
:100C00002C439C6683F86C10110E83F86D10110C48
:100C10000906196711021C6F0A4601F47F0121437E
:100C200092B21C6A1967196F0A431A67C4F3035218
:100C3000196F41EA1461196793F874101143C4F3F2
:100C4000072283F87410210A01F47061A3F876106A
:100C5000B3F8761089B21143C4F34602A3F87610B4
:100C600083F8782083F879C070BD1204D96802F443
:100C70007C12C1F3072C9A640A0E9C6C44EA02248D
:100C8000C1F307429C649C6C22434FF400749A6445
:100C90009A6CC3F88840013240F10004A40244EA8F
:100CA00092549202C3F88440C1F38034C3F8802088
:100CB0002CE74FEA8C2CD96892000CF44064C1F305
:100CC000C26502F47F72C1F3072C9C649C6C2243C2
:100CD000CC0B9A6404F006029C6C44EA91749C6408
:100CE000C1F3026483F84C5083F84D40C1F3425481
:100CF00083F84E40C1F3824483F84F40C1F3C034BF
:100D000083F8502093F850202243012483F8502088
:100D10009D6C93F8502093F84060023204FA06F676
:100D200004FA02F2C3F888604FEAE27EA2FB0624CE
:100D300006FB0E4405F1010E05FB0444A2FB0E2E3A
:100D40007444C3E92024C1F38034DFE6D0280220B4
:100D50002F4B1A68910102D59A6D52074BD42C4B38
:100D60001A68500202D5DA6E11063CD4284B1A6874
:100D7000D20102D59A6D90072DD4254B1A685101E6
:100D800002D59A6D120717D4214B1A68120112D599
:100D90009A6DD0060FD59A6D510334D49A6DD20551
:100DA00003D49A6D22F010029A65194B4FF000623D
:100DB00018489A6034E670479A6D500307D49A6DCC
:100DC000D10503D49A6D22F008029A65104B4FF0BA
:100DD00080629A60D8E79A6D4FF0807122F002022B
:100DE0009A659960C9E7DA6E4FF4800122F08002BB
:100DF000DA669960BAE79A6D4FF0007122F004024A
:100E00009A659960ABE74FF000629A60704700BF47
:100E10000064024058640240384B5A68110303D5FD
:100E2000D3F8A02052075BD4344B5A68D00303D5C3
:100E3000D3F8B420110649D4304B5A68520303D575
:100E4000D3F8A020900737D42C4B5A68D10203D591
:100E5000D3F8A02012071CD4284B5A68920217D549
:100E6000D3F8A020D00613D5D3F8A020510341D445
:100E7000D3F8A020D20505D4D3F8A02022F0100288
:100E8000C3F8A0201D4B4FF400121D48DA60C7E5DF
:100E90007047D3F8A02050030AD4D3F8A020D1057E
:100EA00005D4D3F8A02022F00802C3F8A020134BE9
:100EB0004FF48012DA60CFE7D3F8A0204FF48021FE
:100EC00022F00202C3F8A020D960BDE7D3F8B42015
:100ED0004FF4803122F08002C3F8B420D960ABE730
:100EE000D3F8A0204FF4002122F00402C3F8A02080
:100EF000D96099E74FF40012DA607047006402404D
:100F0000A0640240704700BF704700BF01207047D7
:100F1000014BD3F894007047D0280220044B93F87B
:100F20009402A0F10300B0FA80F04009704700BFBE
:100F3000D0280220012380F849307047064BD3E9BE
:100F4000B302431E9042A3EB02038CBF002001209A
:100F500003EB0030704700BFD0280220D0F81832D1
:100F600023B100221046C3F81422704702207047B4
:100F700001F00F01D0F83022C1EBC10102EB810278
:100F8000D0E98630B2F8102203F5037110B5C468B9
:100F9000D3F80402C3F80C22A047002010BD00BF04
:100FA000D0F81C3283B110B5D0F8184294F8000282
:100FB000FF2807D09B68214694F801229847FF2319
:100FC00084F80032002010BD002070470346432201
:100FD00001481A80704700BF0000022003464322E8
:100FE00001481A80704700BF440002200346432294
:100FF00001481A80704700BF8800022003460A2279
:1010000001481A80704700BFCC000220034620220E
:1010100001481A80704700BFD800022003462022F2
:1010200001481A80704700BFF800022003462022C2
:1010300001481A80704700BF1801022003460A22A7
:1010400001481A80704700BF38010220064B4FF05C
:10105000120C064A506803F11402A1F800C00228DD
:101060000CBF18461046704744010220502800402B
:10107000042301480B8070476C010220214BD3F8F8
:101080002024D3F8280430B512184FF01A040C802D
:1010900001D11D4830BD1C494FF0000ED3F8240487
:1010A0008C467546130FB2F1204F0EF1020E8CF8EC
:1010B000035003F1300403F137034FEA02120CF13D
:1010C000020C34BF8CF800408CF80030BEF1100FD9
:1010D000E8D100221446030FB0F1204F02F10202C2
:1010E000CC7403F1300C03F137034FEA001001F127
:1010F000020134BF81F810C00B74082AEBD10248FA
:1011000030BD00BF00F0F01F7001022000207047CA
:10111000212810B505D0222830D0202814D0002056
:1011200010BD0029FBD0072AF9D11B4B93F8900181
:10113000D3F88C4193F8912193F8923108710020F3
:101140000C604A718B7110BD0029E8D0072AE6D1E6
:10115000114B0C79114A086883F89041D2F8D422D7
:101160004C798979C3F88C0183F8914183F8921105
:10117000002AD4D0014600209047D0E70029CED0E5
:10118000022ACCD1054BD3F8D832002BC7D009881E
:1011900000209847C3E700BF00000220D0280220AB
:1011A000034B93F80003003818BF0120704700BFBD
:1011B000D028022070B5124D40F2FF56114C40F27B
:1011C0004D432A6800210D20C5F8FC120121A663B9
:1011D000A260E360FFF780FBA66320B96369C3F3F5
:1011E0004323042B08D00922D5F83433002085F896
:1011F0000023C5F8F03270BD022085F8003370BDC1
:10120000D0280220002C014070B50E4D04460E4639
:1012100095F80033042B0BD0082B07D1D5F8F83202
:1012200083420CD0FFF7C6FF022801D0012070BD19
:1012300008230220C5E9BE4685F8003370BD0220B0
:1012400070BD00BFD0280220034B93F80003032891
:1012500094BF002001207047D0280220004870472A
:10126000D42B0220184B002030B49C7B14B11D6895
:101270008D4205D0013010330828F6D130BC7047BC
:10128000AAB1124B03EB40218A4201D1022C19D0A2
:101290000F4B93F8B4218AB10E4B01225A7000F51E
:1012A0008170012203EB00139A7130BC7047094B27
:1012B00000F5817003EB00139A71DFE7012283F8D8
:1012C000B421E9E7183BEAE7044A0220043A022085
:1012D000EC490220EC390220002330B41B4C04F10D
:1012E000180084F8A03003E001331030082B1ED022
:1012F00005688D42F8D190F80EC0BCF1030FF3D110
:10130000BAB1134901EB4320824209D094F8B421C9
:1013100012B9012284F8B4210E4901224A7000E07A
:10132000183903F58173012201EB03139A7130BC64
:101330007047D4F89C1003F58173064A04200131EC
:1013400002EB0313C4F89C109871F0E7EC490220FB
:10135000043A0220EC39022003682DE9F04F13F023
:10136000010587B000F04181BE498A6822F400027D
:101370008A60426B8C681443B2FA82F28C6013F478
:1013800000244FEA521200F03581B64FC16BD7F8F6
:101390008C60B1F5801F26F4401646EA0106C7F8B6
:1013A0008C6000F0B282B1FA81F113F480174FEA39
:1013B000511140F0248113F0807618BF012200966D
:1013C0009E0600F13682DE060ED5DFF898C2DCF804
:1013D0008CE02EF0807ECCF88CE0DCF88CE0866B24
:1013E0004EEA060ECCF88CE05E040AD5DFF874E213
:1013F000466EDEF890C02CF4403C4CEA060CCEF869
:1014000090C01E040AD5DFF85CE2866EDEF890C05C
:101410002CF4402C4CEA060CCEF890C0DE030AD522
:10142000DFF840E2C66EDEF890C02CF4401C4CEAB7
:10143000060CCEF890C09E030AD5DFF828E2066FAE
:10144000DEF890C02CF4400C4CEA060CCEF890C0AC
:101450005E060AD5DFF80CE2466CDEF890C02CF090
:10146000030C4CEA060CCEF890C01E060AD5DFF835
:10147000F4E1866CDEF890C02CF00C0C4CEA060C03
:10148000CEF890C0DE050AD5DFF8D8E1C66CDEF8EC
:1014900090C02CF0300C4CEA060CCEF890C09E05A3
:1014A0000AD5DFF8C0E1066DDEF890C02CF0C00C64
:1014B0004CEA060CCEF890C05E050AD5DFF8A4E130
:1014C000466DDEF890C02CF4407C4CEA060CCEF859
:1014D00090C01E050AD5DFF88CE1866DDEF890C05D
:1014E0002CF4406C4CEA060CCEF890C0DE040AD511
:1014F000DFF870E1C66DDEF890C02CF4405C4CEA79
:10150000060CCEF890C09E040AD5DFF858E1066EAE
:10151000DEF890C02CF4404C4CEA060CCEF890C09B
:101520005E020AD5DFF83CE1866FDEF890C02CF051
:10153000806C4CEA060CCEF890C013F4001E0FD05D
:10154000DFF82081D0F87C90D8F890C0B9F1006F16
:101550002CF0006C08BF01214CEA090CC8F890C0BF
:101560005E030AD5DFF8FC80466FD8F890C02CF0F7
:10157000407C4CEA060CC8F890C01E020BD5DFF880
:10158000E480D0F88060D8F890C02CF0805C4CEA01
:10159000060CC8F890C05E010BD5DFF8C880D0F803
:1015A0008460D8F890C02CF0005C4CEA060CC8F8B7
:1015B00090C01E010BD5DFF8AC80D0F88860D8F859
:1015C0008CC02CF0007C4CEA060CC8F88CC0DE0005
:1015D0002AD4B3F1007F36D0D60734D4012900F0E5
:1015E0009981002007B0BDE8F08F13F400242A464B
:1015F0007FF4CBAE214613F480173FF4DCAEDFF866
:1016000064E0D0F840C0DEF88C60BCF5800F26F4B2
:10161000400646EA0C06CEF88C6000F07981BCF1F9
:10162000000F08BF0121C6E6DFF83880B3F1007F64
:10163000D0F88C60D8F88CC02CF0806C4CEA060C8A
:10164000C8F88CC0C8D1DFF81C80DFF81CC0D8F8FF
:101650000020009E22F08062C8F80020DCF8389359
:101660000BE000BF00380240D0280220DCF838230D
:10167000A2EB0902642A00F2D880D8F800201201F7
:10168000F4D40096002D43D0426B002A40D1D8F804
:1016900084504FF4403999FAA9F2B2FA82F6D8F898
:1016A0008420019602924FF0706292FAA2FABAFA7E
:1016B0008AF647F6C07B03969BFAABFBBBFA8BFB23
:1016C00099FAA9F9B9FA89F992FAA2F24FF0E04A27
:1016D000B2FA82F29AFAAAFA019E05F44035BAFAF1
:1016E0008AFAF540039E05FA09F9029D05F0706536
:1016F000F5409540426802FA0BFB826802FA0AF252
:101700004BEA020242EA090949EA0505C8F8845091
:10171000002C40F0B18127B1026CB2F5800F00F0CF
:10172000B081009A002A43D0DFF81C944FF0706615
:10173000D9F8842096FAA6FBD9F88450BBFA8BFB23
:1017400000954FF0E04595FAA5F8B8FA88F647F607
:10175000C07A01969AFAAAFA4FF44038BAFA8AFA8D
:1017600098FAA8F84FF07066B8FA88F896FAA6F6D4
:10177000B6FA86F695FAA5F502F07062B5FA85F527
:1017800022FA0BF202FA06F6009A02F0E04B019AF6
:101790002BFA02FB42680BFA05FB056902FA0AF212
:1017A00005FA08F52A43164346EA0B06C9F8846091
:1017B0009B0126D547F6C07393FAA3F34FF4403844
:1017C000B3FA83F298FAA8F84FF07066B8FA88F87E
:1017D00096FAA6F64FF0E045B6FA86F695FAA5F524
:1017E0004368B5FA85F59340026902FA08F213439B
:1017F000C268B24013438268AA401343D24AC2F877
:101800008430D14A136843F080631360DCF83853A6
:1018100004E0DCF838335B1B642B06D813681E0128
:10182000F7D501297FF4DDAE74E0032007B0BDE8F1
:10183000F08FDFF814E39A46DFF81083DEF840906B
:10184000DFF80CC349F08059009ECEF84090DEF8D6
:1018500040E00EF0805ECDF814E0DDF814E0D8F83A
:1018600000E04EF4807EC8F800E0DCF8389306E033
:10187000DCF83833A3EB090EBEF1640FD5D8D8F8E5
:101880000030DB05F4D5DFF8C0825346D0F830E0F5
:10189000D8F87090009619F440791DD00EF4407A73
:1018A000CA4519D0D8F870E0D8F870902EF4407E70
:1018B00049F48039C8F87090D8F8709029F48039CC
:1018C000C8F87090C8F870E0D8F870E01EF0010F0A
:1018D00040F04281D0F830E00EF4407CBCF5407F0F
:1018E00000F01D81DFF86082D8F808C02CF4F81CE5
:1018F000C8F808C0DFF850C2CEF30B0EDCF87080D9
:101900004EEA080ECCF870E05DE50021012272E697
:10191000012250E58C4ADFF838C2136823F0805367
:101920001360DCF8381305E0DCF838335B1A642BFD
:101930003FF67BAF13689D00F6D4002C40F0FE808C
:10194000002F45D0036C002B42D17F4C4FF4403622
:10195000D4F8881096FAA6F94FF0E042B9FA89F95E
:10196000D4F8883092FAA2F747F6C075B7FA87F72D
:1019700095FAA5F5B5FA85F596FAA6F6B6FA86F8BB
:101980004FF0706696FAA6F6B6FA86F692FAA2F2CA
:1019900003F0E043B2FA82F201F44031FB4021FA55
:1019A00009F103FA02F2436901FA08F1AB408569D3
:1019B000B5402B430B431343C4F88830D4F88C3024
:1019C000826A23F4F853013A43EA0223C4F88C30C4
:1019D000BEF1000F3ED0C36FB3F1006F3AD15A4C45
:1019E0004FF07061D4F8887091FAA1F84FF0E0429E
:1019F000B8FA88F8D4F8883092FAA2FE47F6C07692
:101A0000BEFA8EFE96FAA6F64FF44035B6FA86F682
:101A100095FAA5F5B5FA85F591FAA1F1B1FA81F13A
:101A200092FAA2F203F0E043B2FA82F207F0706792
:101A300023FA0EF327FA08F703FA02F24369006A61
:101A400007FA01F1B34000FA05F52B430B431343AA
:101A5000C4F888303C4A136843F080531360DCF8C4
:101A6000381305E0DCF838335B1A642B3FF6DDAE43
:101A700013689B00F6D5B4E5C26BB2F5801F7FF406
:101A80004AAEDFF8C4904FF44035D9F8848095FA17
:101A9000A5F2B2FA82F6D9F88420019602924FF0AC
:101AA000E04292FAA2FABAFA8AF647F6C07B0396A7
:101AB0009BFAABFBBBFA8BFB95FAA5F54FF0706A6E
:101AC000B5FA85F59AFAAAFABAFA8AFA92FAA2F25D
:101AD000019E08F44038B2FA82F228FA06F8039E12
:101AE00008FA05F8029D05F0E045F540954042688A
:101AF00002FA0BFBC26802FA0AF24BEA020242EA5D
:101B0000080848EA0505C9F88450D9F88C50426A9B
:101B100025F01F05013A2A43C9F88C2001E6DFF8B9
:101B20002890DFF83080D9F808C00EEA08082CF4B5
:101B3000F81C4CEA080CC9F808C0DBE6C36B002BA4
:101B40003FF403AFFCE600BF0038024000700040E5
:101B5000D0280220FFFCFF0FDCF838A341F28839BF
:101B60009B46009E06E0DCF83833A3EB0A0ECE4518
:101B70003FF65BAED8F870309B07F4D55B46009615
:101B8000A8E600BF2DE9F047046982B0C3681C4095
:101B900044D0814688464FF0004501F1500701F1DD
:101BA0003806B4FA84F325FA03F21B3BD2431440FF
:101BB000C9F81020B8F1000F5DD0042B2CD8DFE855
:101BC00003F050463B300300D8F81030D9F82CA071
:101BD00033B19B6823B11FFA8AF108F108009847D6
:101BE000D8F8283033B19B6823B11FFA8AF108F185
:101BF00020009847D8F840302BB19B681BB11FFAE2
:101C00008AF130469847D8F858302BB19B681BB101
:101C10001FFA8AF138469847002CC2D102B0BDE8BD
:101C2000F087D8F8103008F10800D9F834105B6854
:101C30009847002CB5D1F1E7D8F8283008F12000FA
:101C4000D9F838105B689847002CAAD1E6E7D8F895
:101C500040303046D9F83C105B689847002CA0D142
:101C6000DCE7D8F858303846D9F840105B68984718
:101C7000002C96D1D2E7042B07D8DFE803F0031934
:101C8000140F0A00D9F840300193019B002C88D131
:101C9000C4E7D9F82C300193019BF7E7D9F8343029
:101CA0000193019BF2E7D9F838300193019BEDE7EE
:101CB000D9F83C300193019BE8E700BF2A4B002292
:101CC0002A48D3F894312A4930B52A4C83B0C4F855
:101CD0004C23C4F84423A0FB032394F87923C4F8CD
:101CE0003C1342F20F71DB0CC4F84813013BC4F8FB
:101CF0004033002A32D002231F491D484FF400050B
:101D000084F87933FEF762FC1C4B01223720062150
:101D100084F879231A6C42F020021A641B6C03F0D9
:101D200020030193019B6DF0C7FED4F83C330020E3
:101D30001349D4F8B0224D60D96841F00101D9604F
:101D4000196841F0010119600E490F4BC2F81002E9
:101D5000C4E9B500C2E9813103B030BD02F0FF0033
:101D600084F87803C7E700BF0000022083DE1B432E
:101D700000140040D0280220102C0220003802401D
:101D800000E100E0105C0220104C0220714A724B0E
:101D900051680B402DE9F04343F0760383B064268D
:101DA000536019F077FF04460D4619F073FF031BCB
:101DB00061EB0502B3F57A7F72F10003F5D3013EC2
:101DC000EFD1644B03215A6822F480725A60196083
:101DD00019F060FF04460D4619F05CFF031B61EB30
:101DE0000502B3F57A7F72F10003F5D319F052FFC3
:101DF00004460D4619F04EFF031B61EB0502B3F5D7
:101E00007A7F72F10003F5D3524C40F2FF5000216B
:101E10004FF48062636843F4807363604FF400336F
:101E2000A063A160E26001E0002B5ED0626B013B29
:101E30001206F9D5002B58D040F2FF554FF4D57259
:101E40004FF489630721A5630820A563A260E360BE
:101E5000FEF742FDA563002840D000243D4D40F22E
:101E6000FF5700230121AF633720AB6040F2774377
:101E7000EB60FEF731FDAF63804650BBDFF8E090CA
:101E800044EA090912E0AF63C5F80890EA60FEF77A
:101E900023FD4FF6FE72AF63D8B96B6996426FEAC5
:101EA00003044FEAD47488BF00243CB340F2774364
:101EB000AF630121C5F808803720EB60FEF70CFD09
:101EC0000346013640F2694203212920AF63002B0B
:101ED000D9D00124204603B0BDE8F0831F4B012276
:101EE0004FF0804483F89020B8E70124194B40F26A
:101EF000FF5220469A6303B0BDE8F0834FF6FF72AD
:101F00009642E6D05B0000F1FB80642619F0C2FE29
:101F100005460F4619F0BEFE431B61EB0702B3F501
:101F20007A7F72F10003F5D3013EEFD109490B68C6
:101F30009F07CED0DFF8248098F8900004285ED068
:101F400040F2FF538B6340F2C2438E60CB604FF48C
:101F5000003308E0002C01400081FFFFD028022060
:101F60000000108023B14A6B013B12F0450FF9D0FD
:101F70009E4B5A6B520700F1C8805A6B12F0010F4A
:101F800040F2FF5240F0C3809A6301285A69C8F8B2
:101F900014209A69C8F81820DA691B6AC8E907236F
:101FA00003D9062801D002280FD1904D40F2FF56E8
:101FB00000230621AE630320AB6040F24343EB6095
:101FC000FEF78AFCAE63002883D1D8F8003040F2D7
:101FD000FF56864D02210920AE63AB6040F2C94333
:101FE000EB60FEF779FCAE6300287FF472AF6A699C
:101FF000AB69C8E90123EA692B6AC8E903236427AE
:1020000019F048FE05460E4619F044FE431B61EBED
:102010000601B3F57A7F71F10003F5D3013FEFD1EB
:10202000FEF72EFD00287FF454AFD8F8003040F2C0
:10203000FF566E4D012107206427AE63AB6040F26E
:102040004743EB60FEF748FC8146AE6319F022FE81
:1020500005460E4619F01EFE431B61EB0601B3F563
:102060007A7F71F10003F5D3013FEFD15F4A604BF6
:1020700051680B405360B9F1000F7FF42AAF642719
:1020800019F008FE05460E4619F004FE431B61EBED
:102090000601B3F57A7F71F10003F5D3013FEFD16B
:1020A00098F89030022B15D8504D6B699E0111D4D1
:1020B00040F2FF564FF48A634FF0080901211020C7
:1020C000CDE90077AE63C5F80890EB60FEF704FC3D
:1020D000AE63F8B10124642719F0DCFD05460E4615
:1020E00019F0D8FD431B61EB0602B3F57A7F72F15C
:1020F0000003F5D3013FEFD1204603B0BDE8F083E4
:102100003C4B022283F89020FFE640F2FF5201246C
:102110009A63DFE6D8F800300121AE633720AB6068
:1021200040F27743EB60FEF7D7FBAE630028D1D1D6
:10213000314B012133206B62C5F82890EB6A43F0E4
:102140003303EB6240F27343AE63AF60EB60FEF7C4
:10215000C3FBAE630028BDD16B4640F22A4202E0C9
:10216000696B88023DD4696B1142F9D06B6B19071A
:10217000B0D46B6B9A07ADD46B6B9B06AAD46B6B18
:102180009F02A7D4009B1BBA5E03A3D5D8F80020FA
:1021900040F2FF5640F277430121AE633720AA6038
:1021A000EB60FEF799FBAE63002893D1022240F268
:1021B0004643AE630121AA600620EB60FEF78CFB6C
:1021C000AE63002886D16B681D0584D4074A084990
:1021D00053680B4043F40063536053681805F7D508
:1021E00079E7D5F8801043F8041BBCE7002C0140C8
:1021F0000081FFFFD028022000E1F50508B5FFF7B8
:10220000C5FD58B10E4A92F8F4320133DBB2072B08
:1022100082F8F43203D9002382F8003308BDD2F8E3
:102220002C3323B11868998803691942F3D0D2F886
:1022300034130123C2F8F01282F8003308BD00BF46
:10224000D0280220F8B59D4CD4F83033002B00F094
:102250002A8194F8000340F2FF56994D40F24D4711
:10226000431E082B5BD8DFE803F04548C75A876850
:10227000215A050023680121AE630D20AB60EF6099
:10228000FEF72AFBAE6328B96B69C3F34323042B23
:1022900000F0FF80D4F8F032D4F83423FA339342BC
:1022A0003AD2FFF7ABFF94F80003D9E72368012186
:1022B000AE630D20AB60EF60FEF70EFBAE6300284F
:1022C000E8D16B69C3F34323042BE3D1D4F8FC3288
:1022D00084F8F402012B40F2EC80D4F8F8220120BB
:1022E000013B08210244C4F8FC3284F80013C4F80E
:1022F000F822F8BD022384F8003323680121AE637D
:102300000D20AB60EF60FEF7E7FAAE6320B96B69B2
:10231000C3F34323042B50D094F80003431EDBB2D5
:10232000022B00F2AF80D4F83433D4F8F0229B1A99
:10233000C82B00F2B3800020F8BD236B002BFAD12C
:102340000722D4F83433D4F8E85284F80023C4F8D0
:10235000F032002DEFD0D4F8EC320120D4E9B721CF
:10236000A84794F80003431ED9E7D4F8F032D4F814
:10237000342364339342DED2E36A002BF5D1236821
:102380000121AE630D20AB60EF60FEF7A5FAAE63EE
:10239000002888D16A69C2F34322042A83D1D4F881
:1023A000E85284F8002384F8F402002D7FD0D4F89A
:1023B000EC32D4E9B721A847AEE7FEF761FB00286D
:1023C000AAD194F89030002BA3F10203B3FA83F35F
:1023D00014BF022201225B0984F8F52284F8F63248
:1023E000FEF74EFB00287FF45CAFD4F88020032377
:1023F000C4F8042384F80033FEF742FB00288BD195
:1024000094F86420B4F8663084F80A23A16EA4F826
:102410000833A26E090EA36E120CC4F8FC021B0A4C
:10242000042084F80B1384F80C2384F80D33A26E77
:1024300094F86C1094F86D3084F80E23C34094F82F
:102440006D2084F80F1384F8143302F00F02236F09
:10245000B4F87610C4F81033B4F8763084F8152345
:10246000C3F30B13B4F8762084F8000343EA112376
:1024700002F00F0203F00F0384F8182303F5FA6348
:10248000A4F81633082818BF04280CBF0120002028
:10249000F8BD0423012084F80033F8BDFFF7AEFE39
:1024A00094F80003EEE7184684F80033F8BD0120E5
:1024B000F8BDEED1FEF77EFE2EE700BFD028022049
:1024C000002C01402DE9F047224E8846D6F8B03264
:1024D000D3F81422002AFBD1B8F1000F37D000EB5B
:1024E0000809471EDFF870A009F1FF3917F8010F3E
:1024F000D6E9B3314A1C0AF80100C2F30B029A4232
:10250000A3EB0203C6F8D02234BF0021012103EB64
:102510000133012B19D119F0BDFB04460D4619F00A
:10252000B9FB001B61EB0501B0F57A7F71F1000387
:10253000F5D3D6E9B3329342A3EB02038CBF00215B
:10254000012103EB0133012BE5D04F45CED14046AD
:10255000BDE8F087D0280220105C0220F8B50C4EB0
:1025600096F89432032B00D0F8BD0D461446D6F8E9
:10257000347308E0FFF7A6FFD6F83433241A054475
:10258000DB1B322BF0D8002C21462846F2DCF8BDAC
:10259000D0280220F8B590F848305D1C0344EDB215
:1025A00080F8485083F8341090F84930012B02D15C
:1025B000132D00D8F8BD002380F84830002DF9D045
:1025C0000B4F97F89432032BF4D1D7F8346300F112
:1025D000340401E0002DEDD029462046FFF772FFBC
:1025E000D7F834332D1A04449B1B322BF2D9F8BD93
:1025F000D0280220F8B5002390F84850A0F84830C1
:1026000005B9F8BD0B4F97F89432032BF9D1D7F8E1
:10261000346300F1340401E0002DF2D02946204655
:10262000FFF750FFD7F834332D1A04449B1B322B8D
:10263000F2D9F8BDD0280220436BDA69910670B553
:10264000044614D5586AE36AC0B2002B00F0BC807F
:10265000216B9847636B1A6822F480721A609A683B
:1026600022F001029A609A6942F008029A61DA69DE
:10267000D20701D501221A62DA69960701D5022232
:102680001A62DA69550701D504221A62DA6910075D
:1026900001D508221A62DA69110613D594F89D2033
:1026A000212A0FD0D4E909128A4200F09980A16949
:1026B000895C0132C9B299622169B2FBF1F001FB78
:1026C0001022A262DA69520600D470BDDA6904F100
:1026D00034001D681607996815D1960602D5A9061B
:1026E00000F1A980160602D5280600F19280510655
:1026F000EBD56A06E9D51A68202122F040021A605B
:1027000084F89D1070BD01F0010105F4907C5CEA35
:102710000106E7D0D60709D5EE0507D501261E62CA
:10272000D4F8A06046F00106C4F8A060960763D410
:10273000560708D539B104261E62D4F8A06046F0C9
:102740000206C4F8A06016070CD505F0200C5CEA60
:10275000010107D008211962D4F8A01041F0080146
:10276000C4F8A010D4F8A0100029AED0960601D568
:10277000AD067FD4D4F8A020110703D49A6812F0D4
:1027800040027BD01A68202122F490721A609A6865
:1027900022F001029A6084F89E109A68520694D53D
:1027A0009A68D4F8980022F040029A6000288CD0F1
:1027B00090F83530394A022B026540D08023BDE8BD
:1027C00070404365FDF78EBFE3696269D054E369E9
:1027D000E2680133B3FBF2F102FB1133E36139E745
:1027E0000022A4F886201A6822F080021A60DA69B2
:1027F00052067FF56AAF69E70029A4D002261E625F
:10280000D4F8A06046F00406C4F8A06056079AD534
:1028100091E794F89D20212A7FF457AFB4F88620E1
:1028200092B2AAB91A6822F080021A601A6842F0BD
:1028300040021A6070BDBDE8704070F091BA026845
:10284000052380F83530136823F00103136070BD51
:10285000E26BB2F5805F14D0D4F88020511CC4F82C
:10286000801012789A62B4F88630013B9BB2A4F8CB
:10287000863070BD70F074FA636B7BE7C4F8A020FB
:1028800070BD626C002AE7D1D4F8802032F8021BB8
:10289000C1F308019962C4F88020E4E7E506010865
:1028A00070B50B780C46054613F0600223D0202A41
:1028B00024D1CA8822B31B06D0F8186242D5D0F8BA
:1028C0001C32314660789B689847E288D5F83032F0
:1028D00002210020AA61C5F8F4114FF48071EA6169
:1028E000198703F138015E64C3E913201A69012ACC
:1028F00022D19E6420E04B780A2B08D0002070BDC6
:10290000D0F81C3248789B689847002070BDD0F8FA
:102910003032012102204FF48074C5E90611C5F858
:10292000F4011A651A691648012AD96403F13801BD
:1029300058641C8708BF98641868D2B270F070F8A9
:10294000002070BD4978032386F8012286F8001222
:10295000C0F80821C0F8F431C0F80C21D0F83032AA
:102960000020C3E983201A6903F5FC71C3F80462EF
:10297000012AA3F8F801DFD1C3F80862DCE700BF41
:102980004C2C0220234938B5D1F89420D1F880335B
:102990005BB1002AFCD0013A13F8014BC1F8942036
:1029A000C1F8803312B1204638BDFEE7D1F8B0023D
:1029B0000028F8D091F8A850D1F8C832D0F8040215
:1029C000ADB91A690121C3F82C524FF40075012AE0
:1029D000A3F81412C3F8200203F50571C3F82852B6
:1029E00014D01868D2B270F099F8204638BDC3F8F8
:1029F0002C2201211A694025A3F8141203F5057150
:102A0000012AC3F82002C3F82852EAD1C3F82402ED
:102A1000E7E700BFD028022038B50022D0F82842CE
:102A200005461B4B84F8381204F50B7022720D21F9
:102A3000C4F82C3204F50374D5F83032DA6640F26B
:102A400001121866A3F854201A69996603F154011B
:102A5000012AD2B208BF5866186870F05FF8D5F83E
:102A600030321F2000220121C3F82042C3E98A022C
:102A70001A69A3F814128A42186803F50571D2B2D4
:102A800008BFC3F82442BDE8384070F047B800BF23
:102A9000555342532DE9F047137882B091460446CE
:102AA0008A465A2B5CD8DFE813F0EC005B005B0031
:102AB0007E005B005B005B005B005B005B005B001B
:102AC0005B005B005B005B005B005B005B00C900C0
:102AD0005B005B005B005B005B005B005B00AE00CB
:102AE00075005B005B0075005B005B005B005B00DA
:102AF000E8015B000E025B005B0070015B00FE0002
:102B00005B005B005B005B005D015B005B005B00EA
:102B10005B005B005B005B005B005B005B005B00DD
:102B20005B005B005B005B005B005B005B005B00CD
:102B30005B005B005B005B005B005B005B005B00BD
:102B40005B005B005B005B005B005B005B005B00AD
:102B50005B005B005B005B005B005B005B002D02C9
:102B6000D0F8282205244FF4005092F85D3202EB91
:102B7000C3010133DBB281F83C42C1F84002042BAF
:102B800000F0048282F85D324FF0FF35284602B033
:102B9000BDE8F0870023D0F828221D46538128463F
:102BA00002B0BDE8F087D0F828320C240020702154
:102BB0001D19D86018615861986128821973DC74F6
:102BC00093F85C1293F85D428C4213D003EBC1047E
:102BD000013194F83C52C9B29D73042994F84152D2
:102BE0001D7694F8404218BF83F85C125C7608BFEB
:102BF00083F85C021221598199F804208A4218D87E
:102C000000255A81C2E7D0F8281208250022CB4CB3
:102C100001F1130301F10B004D81C3F1070101E044
:102C200092F8302003F80129CA18834214FA82F27C
:102C3000F6D10025284602B0BDE8F08799F80130AA
:102C4000D0F82802DB0700F17481D4F82C3201EBB4
:102C5000C10199F80450DC6904EB81042279531D09
:102C6000AB4228BF2B464381002BE2D003F10B027D
:102C70002344024413F8011DA34202F80119F9D1BB
:102C8000D7E7D0F82862D6F81472002F40F070828F
:102C9000D0F82C3208469B6898470546002840F03B
:102CA0004A82708172E7D0F8286296F80880B8F1FD
:102CB000000F40F0738196F91832002BC0F2C182E8
:102CC000D0F82C3208469B6898470746002840F009
:102CD0009F82D4F82C325046DB689847054600287E
:102CE00040F0D981D9F80210D4F8280209BAD0F8F6
:102CF0006022C6F86412B9F807305BBA9BB25F185D
:102D0000C6F86832974200F2DD81B6F85E2202FB17
:102D100003F302FB01F1D6F814229342C6E999139A
:102D200040F08B810121B3F5007F06F10C0606F817
:102D3000041C28BF4FF40073D4F830020269C0F8B5
:102D40002832012AC0F82C52C0F82062D2B2A0F872
:102D5000141200F5057108BFC0F8246200686FF016
:102D6000DDFE13E799F80130D0F8282213F00203B2
:102D700040F0FD80B2F86812D2E998042144814203
:102D800000F20C821D46538100E7D0F828723E7A8B
:102D9000002E40F0018197F91832002B80F210824A
:102DA000D0F82C3208469B689847002840F0CA802B
:102DB000D9F80250D4F828622DBAD6F86022C7F8A4
:102DC0006452B9F807305BBA9BB205EB030CC7F845
:102DD0006832944500F20782B7F85E2202FB03F3E3
:102DE00002FB05F502223A72D7F814229342C7E992
:102DF000995340F07A814FF40073D6F86422D4F8E6
:102E00002C1206F10C057B815046D6F86872D1F879
:102E1000108029469F4228BF1F46B6F85E32B2FB9B
:102E2000F3F2B7FBF3F39BB2C0470028C0F2708106
:102E3000D4F830320022DA6640F201121D6603F146
:102E40005401A3F854201A691868012A9F66D2B267
:102E500008BF5D666FF062FED6F83432D6E9992578
:102E6000DB1B3A44ED1BC6F83432C6E99925002D28
:102E70007FF4DFAE0323337288E6D0F828620027A0
:102E800008460DF10202F76001A937617761D4F8B5
:102E90002C325B6898470546002840F0E680BDF874
:102EA00002200821019B52BAF173013BF2820C22ED
:102EB000190EF37472811A0C1B0A31747274022297
:102EC000B374B28262E6D0E98A6308465B6806F2B0
:102ED0005E2206F5187198470546002840F0BF802D
:102EE000D6F860320821B6F85E22013B718152BAF1
:102EF0003082190EF37372821A0C1B0A31737273CB
:102F0000B37343E6D0F82812082500220B4C01F1D8
:102F1000130301F10B004D81C3F1070101E092F8A9
:102F2000382003F80129CA18834214FA82F2F6D134
:102F30007FE60722024C1346428197E608D908082B
:102F400030D90808D4F828224FF46850022492F8A7
:102F50005D32591C02EBC303C9B283F83C42C3F88B
:102F60004002042900F0838182F85D120CE692F899
:102F70005D3205244FF41050591C02EBC303C9B253
:102F800083F83C42C3F840020429EDD100234FF0FE
:102F9000FF3582F85D32F9E53E462CE7D6F86852F7
:102FA0000846B6F85E3206F10C07B5F5007FD6F894
:102FB0006422D4F82C1228BF4FF40075D1F8148085
:102FC0003946B2FBF3F2B5FBF3F39BB2C0470028DE
:102FD000C0F25781D6F86432D6F834222B44521B03
:102FE000C6F86432D6F86832C6F83422591BC6F8DF
:102FF000681221B920460D46FFF70EFDC6E5B1F572
:10300000007FD4F830020B464FF0000228BF4FF487
:1030100000730121C0F820720025A0F8141200F5F9
:103020000571C0E98A320269012AD2B208BFC0F82C
:10303000247200686FF072FDA8E590F85D320524F7
:103040004FF4005100EBC3020133DBB282F83C4283
:10305000C2F84012042B45D080F85D3294E5D4F8D4
:1030600028224FF4685002247FE5D4F828224FF438
:10307000685002244FF0FF3592F85D32591C02EB84
:10308000C303C9B283F83C42C3F84002042916D0F6
:1030900082F85D127AE5D4F828224FF41C500224FD
:1030A00092F85D32591C02EBC303C9B283F83C426B
:1030B000C3F8400204297FF457AF4FF0FF3582F880
:1030C0005D7263E590F85D3205211A46013300EB2D
:1030D000C202DBB282F83C124FF40451042BC2F856
:1030E0004012B9D180F85D524EE596F85D32052167
:1030F0001A46013306EBC202DBB282F83C124FF4EF
:103100000051042BC2F840127DD086F85D323BE5B9
:10311000D4F828224FF48850042492F85D3202EB50
:10312000C3010133DBB281F83C42C1F84002A34243
:103130007FF428AD2AE7D4F8282202204FF0FF358B
:1031400092F85D321946013302EBC101DBB281F81E
:103150003C024FF46850042BC1F8400218BF82F8BB
:103160005D324FF0050308BF82F85D7233720DE5E2
:1031700096F85D3205204FF400511A460133DBB258
:1031800006EBC202042B82F83C02C2F84012BCD10A
:1031900000234FF0FF3586F85D32F7E492F85D12B8
:1031A00005240846013102EBC000C9B280F83C4258
:1031B0004FF404540429C0F840427FF4D5AEE6E64B
:1031C00097F85D3205211A46013307EBC202DBB2E4
:1031D00082F83C124FF40051042BC2F840124BD03D
:1031E00087F85D32D0E496F85D3205211A46013346
:1031F00006EBC202DBB282F83C124FF40451042BFE
:10320000C2F8401281D14FF0FF3586F85D02BDE46F
:10321000D4F828224FF46850022492F85D3292F8D4
:103220005D12013302EBC101DBB281F83C42042B99
:10323000C1F840027FF4A6AC4FF0FF3582F85D8202
:10324000A4E496F85D3205211A46013306EBC2026A
:10325000DBB282F83C124FF40051042BC2F840124A
:103260007FF453AF4FF0FF3586F85D828EE44FF068
:10327000FF3582F85D6289E44FF0FF3587F85D62C3
:1032800084E4D4F828224FF44070042492F85D328C
:103290001946013302EBC10144E700BFD0F8281200
:1032A00010B50B7A022B07D0033B012B02D800216B
:1032B000FFF7B2FB002010BD01F21B2291F819129A
:1032C0000446FFF7E7FB0028F4DA01212046FFF768
:1032D000A3FBEFE71E4B0A68C3F88003C3F89420F2
:1032E0000AB100207047D3F8B0120029F9D010B508
:1032F00093F8A800D3F8C832B0B14024D1F8040242
:103300000121C3F82002A3F8141203F50571C3E9E3
:103310008A421A69012A08BFC3F824021868D2B287
:103320006FF0FCFB002010BD4FF40072D1F8044296
:103330000121C3F82042A3F8141203F50571C3E973
:103340008A201A69012AE9D1C3F82442E6E700BFBE
:10335000D028022070B5037C0446002B44D1D0F85D
:1033600030024FF40073022281216FF081F94FF493
:10337000007302220121D4F830026FF079F908239A
:1033800003228221D4F830026FF072F94FF40770F3
:1033900077F0F4F80546C4F81802002849D0D4F8AC
:1033A0001C321B6898470022267CC5F81422D4F8EA
:1033B0003032D5F80402C5F8182226B34024012182
:1033C000C3F820020026A3F8141203F50571C3E91F
:1033D0008A421A69012AD2B208BFC3F824021868C7
:1033E0006FF09CFB304670BD402302228121D0F853
:1033F00030026FF03DF9402302220121D4F830025F
:103400006FF036F9BBE701224FF40071C3F82002D8
:10341000A3F814221A69012AD2B2C3E98A1608BF96
:10342000C3F8240203F5057118686FF077FB304686
:1034300070BD0126D6E700BF38B5037C0446002BDB
:1034400056D1D0F830024FF40073022201216FF000
:103450000FF94FF4007302228121D4F830026FF08B
:1034600007F94FF41B7077F089F80546C4F8280275
:1034700000284CD00020D4F82C322881A5F85C021A
:103480001B689847D4F8300290F8B8330468012BD1
:1034900014D010221F4B226101E0013B02D02269AF
:1034A000D106FAD460221B4B226101E0013B02D01D
:1034B00022699206FAD4002380F8B8331F22002331
:1034C00005F5037500F50571C0F82822C0F82C3207
:1034D00001230269C0F820529A42A0F81432D2B2F5
:1034E00008BFC0F8245220466FF018FB002038BDFA
:1034F000402302220121D0F830026FF0B9F84023B6
:1035000002228121D4F830026FF0B2F8A9E701203D
:1035100038BD00BF400D030038B5D0F8305240F23E
:103520000112044695F8B833A5F85420012B09D0B0
:1035300001222868114685F8B8236FF0B7FB0023F5
:1035400085F8B833D4F83052012195F8B833A5F88E
:1035500014128B4208D00022286885F8B8136FF047
:10356000A5FB002385F8B833D4F830524FF48172AC
:1035700095F8B833A5F87020012B09D0012202215B
:10358000286885F8B8236FF091FB002385F8B833DD
:10359000D4F8183253B1D4F81C325B689847D4F889
:1035A000180276F0F3FF0023C4F81832002038BD6B
:1035B00038B5D0F830520121044695F8B833A5F853
:1035C00014128B4208D00022286885F8B8136FF0D7
:1035D0006DFB002385F8B833D4F8305240F2011265
:1035E00095F8B833A5F85420012B09D0012228689A
:1035F000114685F8B8236FF059FB002385F8B833DE
:10360000D4F8280276F0C2FF0020C4F8280238BDA2
:10361000F8B50B780C460546D0F8287213F0600612
:103620003AD0202E26D14A78FE2A26D0FF2A2CD145
:103630004A8852BBCA8842BB190626D44FF480730D
:103640001F2407F5037001213B810026D5F8303295
:10365000C3E98A421A69C3F82002012AA3F81412A6
:10366000D2B203F5057108BFC3F8240218686FF0E1
:1036700055FA00E000263046F8BD4E882EB9CC88B9
:10368000012C02D1180600F18C800226D5F83002F8
:103690006FF060F93046F8BD4B780A2B64D00B2BE5
:1036A0007CD0012BE7D1D0F830728A8897F8B80324
:1036B000D1B2012800F0EB804FFA82FC87F8B833D2
:1036C000BCF1000FC0F28C80102338680361724B8C
:1036D00001E0013B02D00269D206FAD401F07F0E6C
:1036E000002387F8B833BCF1000FC0F28A80C1EB29
:1036F000C1031C2207EB830302FB0171002283F844
:10370000F8E101F5FC7183F8F92197F8B833012B42
:103710000ED00123386887F8B8334A7809786FF0FB
:10372000C5FA002387F8B83394F90430002B7ADB0C
:103730002B7C002B40F082804FF400730222012189
:10374000D5F830026EF094FFD5F828727B7A022B00
:1037500000F084802279D2098DD0012B8BD00121F9
:103760002846FFF759F986E7D0F8303201220221C6
:103770000437C0F8F41103F13801C0E90622DA6415
:103780004FF4807218681A871A695F64012A1E65EF
:10379000D2B208BF9F646FF043F96CE78B787B600F
:1037A00069E7D5F82C329B699847022338604FF4BB
:1037B0008071C5F8F431D5F830321A691868012AD9
:1037C000D2B2C5E906441E654FF00006198703F121
:1037D0003801DC645F6408BF9F646FF021F94AE739
:1037E00001F07F0E38682C4B4FEA8E1242F0200217
:1037F000026102E0013B3FF473AF02699206F9D423
:103800006EE7CEEBCE0301221C2107EB830301FB05
:103810000E7183F838E083F83920383197F8B833DF
:1038200093427FF476AF2B7C83B94FF4007302226E
:103830008121D5F830026EF01BFF85E7402302227C
:103840000121D5F830026EF013FF7DE740230222FC
:103850008121D5F830026EF00BFF75E7D5F83042C4
:1038600040F201130122A4F8543094F8B83384F8DC
:103870005620934208D01146206884F8B8236FF090
:1038800003F8002384F8B83300237B72F3E64FFA81
:1038900082FC01F07F0E26E7400D0300F8B5D0F85A
:1038A0002862054696F8182212B9D6F81432CBB918
:1038B000D5F8304240F201130122A4F8543094F8B4
:1038C000B83384F85620934208D01146206884F813
:1038D000B8236EF0D9FF002384F8B833737A022B33
:1038E00017D0F8BD747A002CE2D1D0F830720121E3
:1038F00097F8B833A7F814128B4287F81612D7D06E
:103900002246386887F8B8136EF0BEFF87F8B843D0
:10391000CEE7D5F830021F24002206F503760121F8
:10392000C0F82062A0F8141200F50571C0E98A42BF
:103930000269012AD2B208BFC0F824620068BDE85B
:10394000F8406FF0EBB800BF70B5D0F828420546DC
:10395000267A5EB1012E07D104F21B2294F81912C7
:10396000FFF798F8002831DB002070BDD4F8103242
:10397000C4F83032D4F81432C4F83432D0F83032CB
:10398000B3F82C321F2B08D1334BD4F80C229A42B7
:1039900003D194F8191201291DD994F85D324FF41E
:1039A0000051052004EBC3020133DBB282F83C0274
:1039B000C2F840122846042B08BF002384F85D3269
:1039C00002236372FFF76AFF002070BD01212846C1
:1039D000FFF722F8C8E794F81A32013B0F2BDCD826
:1039E00004F21B22FFF756F80028237A29DB013B5B
:1039F000022BB9D9618951B3D5F828220C34D2F8F9
:103A00001432D2F83402994282F8386228BF19463B
:103A10000423401A1372D5F83032C2F834021A69FE
:103A2000996640F20111012A1868A3F85410D2B225
:103A300003F154011C66DE6608BF5C666FF06EF829
:103A400092E7052BC2D02846FFF728FF8CE72846CF
:103A5000FEF7E2FF88E700BF5553424308B520B99F
:103A600004486BF0C1FB044808BD04486BF0BCFB84
:103A7000014808BDAC6A0908542C0220D06A090824
:103A8000024808B56BF0B0FB014808BDF46A0908AC
:103A9000542C0220024808B56BF0A6FB014808BD73
:103AA000FC6A0908542C0220024808B56BF09CFB04
:103AB000014808BD086B0908542C02202DE9F84381
:103AC0008046894615461C46364F97F80013042950
:103AD0000CD0082907D1D7F8F832434506D0FDF7B6
:103AE00069FB0228F1D00120BDE8F88301230622FA
:103AF000C7F8E85240F2FF5687F8E4320A253B63E4
:103B000097F89030C7F8EC42022B274C87F8002337
:103B1000C7E9B79818BF4FEA48284FF48B63A663EC
:103B20000121C4F808801820E360FCF7D5FE013DB0
:103B300003464FF0000C40F2774201213720EDB2EE
:103B4000A66393B9484601216BF07CFB164B1748DE
:103B50004FF40072002158629A620846DA6A42F015
:103B60009102DA62B962BDE8F883A663C4F808C0BE
:103B7000E260FCF7B1FEA66308B1002DCDD10028AC
:103B8000E0D000253D63FEF739FBD7F8E84234B1B9
:103B9000D7F8EC322A46D7F8E0120120A0470320DC
:103BA000BDE8F883D0280220002C014000E1F50593
:103BB0002DE9F04F424E994683B0804696F8003387
:103BC00092460191042B0AD0082B04D00022104603
:103BD00003B0BDE8F08FFDF7EDFA0228F6D101231E
:103BE000F36296F89030022B68D04FEA482B002100
:103BF00001986BF027FB334C4FF40072324B40F2CC
:103C0000FF570A2563620121A2621020E36A43F094
:103C10009303E362A763A2604FF48A62E260FCF759
:103C20005BFEA76340F25142A7630121C4F808B0CC
:103C30001120E260FCF750FE013D02464FF0000EFD
:103C400040F2774301213720EDB2A763A2B9019872
:103C5000002301220521C6F8DC02B3621046D6F823
:103C60003433C6F8E08286F80013C6F8F032C6E9AD
:103C7000BAA903B0BDE8F08FA763C4F808E0E36019
:103C8000FCF72AFE002818BF002DA76314BF0122ED
:103C90000022C7D10028DAD0F2620192B062FEF7AA
:103CA000ADFAD6F8E842002C90D0019AD6F8EC3262
:103CB0001046D6F8E012A047019A88E7C34696E777
:103CC000D0280220002C014000E1F5052DE9F04745
:103CD000BC4D002105F5CC7C480150F80C30C3F3F5
:103CE0000132C3F3032382F0020283F0030352EA9A
:103CF00003040AD001311029EED1B34E0023C6F8D7
:103D0000303386F80033BDE8F0870CEB0003AE4E8D
:103D1000C6F830331B7F002BF0D12844AB4BD0F8D2
:103D2000A0719F4202D048339F42E7D1A84A536A0C
:103D300043F40063536217F0ADFF8046894617F0E5
:103D4000A9FFB0EB080361EB0901B3F57A7F71F1CC
:103D50000003F4D39E4A536A23F40063536217F0BE
:103D600099FF8046894617F095FFB0EB080361EB99
:103D70000901B3F57A7F71F10003F4D3DFF85092B3
:103D80000C224FF00F0A4FF00008D9F844300E21F2
:103D9000904843F40063C9F84430D9F8303043F414
:103DA0008003C9F83030D9F830301343C9F83030C7
:103DB000A6F86AA686F86C8615F0E8FA0C220E21A1
:103DC0008548A6F876A686F8788615F0DFFA0C22E4
:103DD0000E218248A6F882A686F8848615F0D6FAC7
:103DE0000C220E217E48A6F88EA686F8908615F045
:103DF000CDFA0C220E217B48A6F89AA686F89C865E
:103E000015F0C4FA0C220E217748A6F8E2A686F82F
:103E1000E48615F0BBFA754B302283F831234FF45A
:103E200000325A60D9F83030C6F8447843F4800341
:103E3000C9F83030654B9F4200F082806C494346A0
:103E40006C48C1F8A080C1F8A8004FF474106A4A09
:103E5000C8606A486A4FC1F8A0000720C1F8B400E2
:103E6000114604E001332031102B00F0DD8088681A
:103E7000B842F7D105EB43115B01D1F89C016149D0
:103E8000884257D05248016B41F4800101630F21F1
:103E90002B44A3F8B4115A4904E001342032102C09
:103EA00000F0C28093688B42F7D105EB4411554A6C
:103EB0006301D1F89C11914236D0454A116B41F40F
:103EC000800111631D44504A0023012195F9AC0182
:103ED000C5F8B031C5F8A4216BF0EEFD95F9AC3111
:103EE000002B07DB03F01F0001225B093F498240E2
:103EF00041F82320D6F82C3323B119689A880B692E
:103F00001A4202D0FDF742FF20B1002386F80033A9
:103F1000BDE8F087D6F83423012386F8F402C6F80A
:103F2000F02286F80033EEE629490A6B42F40012CB
:103F30000A63C7E72648016B41F400110163A6E755
:103F40002B4943462B48C1F8588008664FF07460EF
:103F5000294A8860294888650720C866114603E019
:103F600001332031102B5FD08868B842F8D105EBBF
:103F700043115B01D1F89C012249884248D0144882
:103F8000016B41F4800101630F212B44A3F8B411AC
:103F90000E4903E001342032102C45D093688B4247
:103FA000F8D105EB4411174A6301D1F89C119142F5
:103FB00034D007490A6B42F480020A631D44134A55
:103FC00082E700BF00000220D0280220586402408F
:103FD00000380240342F0220402F02204C2F0220B4
:103FE000582F0220642F0220AC2F022000E100E0B5
:103FF00000640240802C0140980102206054A30814
:10400000A064024000600240190E0108510D010831
:104010000748016B41F400110163B5E704490A6BDD
:1040200042F400120A63C9E700235B68FFDE00BFA9
:104030000038024082B006490190D1F83803D1F827
:104040003833019A1B1A9342F9D302B0704700BF6C
:10405000D02802202DE9F04F002385B0DFF85C82E4
:104060000D688C4F03E00133102B00F0C480012257
:104070009A4032EA050402EA050CF4D14E6826F0B3
:104080001009B9F1020F40F0B98003F007044FEABC
:10409000D30E4FF00F0A4FEA840900EB8E0E0AFA96
:1040A00009FADEF8204024EA0A0A0C6904FA09F445
:1040B00006F0030944EA0A04CEF820404FEA430E12
:1040C0000324D0F800A009FA0EF904FA0EF42AEA43
:1040D000040AE44349EA0A090194C0F80090D0F8C0
:1040E00008A0019C0AEA040ACC6804FA0EF949EA1D
:1040F0000A09C0F80890C6F30019D0F804A009FA1C
:1041000003F92AEA020249EA02024260C268019CFB
:1041100014408A6802FA0EF22243C260F200A2D56D
:10412000D8F8442023F0030E03F0030942F4804240
:104130000EF1804E4FEA8909C8F844200EF59C3EE6
:10414000D8F8442002F480420392039A0F22DEF84A
:10415000084002FA09F224EA02024F4CA04221D0A0
:1041600004F58064A04264D04C4CA04267D04C4C13
:10417000A0426AD04B4CA0426DD04B4CA04276D0AE
:104180004A4CA04279D04A4CA0426AD0494CA04245
:1041900079D0494CA0420CBF09240A2404FA09F939
:1041A00042EA0902CEF80820F4033A686FEA0C0EDE
:1041B00003F1010354BF0EEA02024CEA02023A6024
:1041C000B2037C6854BF0EEA04044CEA0404F20211
:1041D0007C60BC6854BF0EEA04044CEA0404BC6072
:1041E000B402FA6854BF0EEA02024CEA0202102B33
:1041F000FA607FF43CAF05B0BDE8F08F4FEA430EA4
:104200000324D0F800B006F0030A04FA0EF409F112
:10421000FF390AFA0EFA2BEA040BB9F1010F6FEA23
:1042200004044AEA0B0A0194C0F800A03FF66EAFFE
:1042300055E7012404FA09F942EA0902B2E7022427
:1042400004FA09F942EA0902ACE7032404FA09F97D
:1042500042EA0902A6E7042404FA09F942EA09023B
:10426000A0E7072404FA09F942EA09029AE70524BB
:1042700004FA09F942EA090294E7062404FA09F962
:1042800042EA09028EE7082404FA09F942EA09021F
:1042900088E700BF003C01400000024000080240E7
:1042A000000C0240001002400014024000180240BE
:1042B000001C02400020024000240240003802405E
:1042C000194A936803F00C03042B2AD0082B26D13B
:1042D000516847F6C07C536801F03F0150685B02AB
:1042E0009CFAACF248BF114BB2FA82F258BF104BA5
:1042F00000EA0C00B3FBF1F1D0400B4B4FF440321D
:1043000001FB00F05B6892FAA2F2B2FA82F203F4C7
:104310004033D34001335B00B0FBF3F070470448F7
:1043200070470248704700BF0038024000127A0010
:104330000024F4000169826838B5044603680A4322
:10434000C06961691D680A43B54902432940E568AF
:104350000A431A605968A26921F440512943256A29
:1043600059602A43996821F430610A43AD498B4270
:104370009A6043D0AC4A93421CD0AC4A934200F0BE
:104380001A81AB4A934200F02A81AA4A93426AD02A
:10439000A94A934200F0A980A84A934200F05E81A6
:1043A000A74A934200F07281B0F5004F00F09A8066
:1043B000012038BD02F5FA32A249D2F8902002F06D
:1043C0000C020A4492F84420B0F5004F42D0082A6B
:1043D000EED801A050F822F0AD44010817440108BE
:1043E00005450108B14301088B440108B1430108A8
:1043F000B1430108B1430108D1440108924A9149EF
:10440000D2F8902002F00302013A022A1ED9B0F538
:10441000004F00F0AF808C484FF46042856892FAFC
:10442000A2F2B2FA82F205F46045D540874A646888
:1044300000202944D2F8942191F85410CA4002EB8C
:104440005402B2FBF4F292B2DA6038BD0A4492F838
:104450004020B9E7082A45D8DFE802F06C8C5E44BA
:104460009C444444970002F5F432D2F8902002F4C0
:104470004072B2F5007F42D023D89AB1B2F5807F66
:1044800092D1B0F5004F00F08580FFF719FF034689
:104490000020D4E9001203EB5203B3FBF2F39BB20A
:1044A000CB6038BDB0F5004F664943D066484FF445
:1044B000E052856892FAA2F2B2FA82F205F4E0556F
:1044C000B3E7B2F5407F7FF46FAFB0F5004F5CD03B
:1044D000616800204A0802F50042B2FBF1F292B294
:1044E000DA6038BD00220120FAE702F59232D2F8F4
:1044F000902002F44062B2F5006F40F08480B0F585
:10450000004F09D061680020514A02EB5102B2FB12
:10451000F1F292B2DA6038BD62684E4901EB5201A5
:104520000020B1FBF2F1C1F3420221F00F010A4376
:1045300092B2D5E7444A4FF4E050926890FAA0F066
:10454000B0FA80F002F4E052C24064680A446108A4
:1045500092F854003D4AD2F89421C240002001EB69
:104560004201B1FBF4F1C1F3420221F00F010A4311
:1045700092B2B5E7344A4FF46040926890FAA0F0E6
:10458000B0FA80F002F46042DEE76268510801F59B
:104590008031C5E7FFF794FED4E90032540804EBFC
:1045A00040010020B1FBF2F1C1F3420221F00F0102
:1045B0000A4392B294E702F5F832D2F8902002F062
:1045C0003002202A9BD006D8002A3FF46BAF102A75
:1045D0003FF457AFE8E6302A3FF477AFE4E602F560
:1045E000F632D2F8902002F0C002802A87D006D896
:1045F000002A3FF457AF402A3FF443AFD4E6C02A25
:104600003FF463AFD0E605D832B3B2F5806F3FF424
:1046100038AFC9E6B2F5406F3FF457AFC4E600BF0C
:10462000F369FFEF001001400044004000480040E3
:10463000004C004000500040001401400078004051
:10464000007C004008D90808003802400000022021
:104650000024F4000048E8011849D8E602F5E032E9
:10466000D2F8902002F44052B2F5005F3FF447AF19
:1046700007D8002A3FF416AFB2F5805F3FF401AFD0
:1046800092E6B2F5405F3FF420AF8DE602F5DE32F0
:10469000D2F8902002F44042B2F5004F3FF42FAF21
:1046A00007D8002A3FF4FEAEB2F5804F3FF4E9AEE2
:1046B0007AE6B2F5404F3FF408AF75E608D908082E
:1046C0008E488F4A8F49121A30B5B5B075F078FF11
:1046D0008D4A8E4B0021D2F888408D4844F47004F6
:1046E000C2F888401C6844F001041C6099601C6892
:1046F0002040884C18605C601868874C20F480204B
:104700001860D9609460BFF34F8FBFF36F8FC2F80A
:104710005012BFF34F8FBFF36F8F516941F40031D7
:104720005161BFF34F8FBFF36F8F196C7B4A41F01C
:1047300080511964196C01F080510191019911683F
:1047400041F440411160126802F440420092009A24
:104750009A6802F00C02042A00F0A5809A6802F020
:104760000C02082A00F09B80684A6D4C136843F4E1
:1047700080331360D4F8381305E0D4F838335B1A6B
:10478000642B00F28B8013689803F6D55F4A936818
:1047900003F00C03082B00F08180136823F0807372
:1047A0001360D4F8381304E0D4F838335B1A022BC2
:1047B00074D813689B01F7D447F6C07090FAA0F044
:1047C0004FF44033B0FA80F093FAA3F34FF07061E6
:1047D00091FAA1F14FF0E043B1FA81F193FAA3F31A
:1047E000B3FA83F50F9BAB404FF4D87505FA00F090
:1047F0000343092088404B4903431943434B51600D
:10480000116841F080711160D4F8381304E0D4F8D5
:104810003823521A022A41D81A689501F7D5196C23
:104820003E4A41F0805119641B6C03F0805302939F
:10483000029B136843F480331360D4F8381306E006
:10484000D4F838335B1AB3F57A7F00F2D580536819
:10485000D803F5D51368314943F400331360D4F815
:10486000382306E0D4F838339B1AB3F57A7F00F288
:10487000C3804B689B03F5D54FF400124FF00063E3
:104880004FF4C07110A8109207222F930323CDE993
:1048900015121893FCF760FD48B1FEE7FEE75B6870
:1048A0005C027FF561AF194B1D4C1B686EE71E4A19
:1048B000136803F00F03062B0BD8136823F00F03C4
:1048C00043F007031360136803F00F03072B40F056
:1048D00092800E4B9A6822F0F0029A601A68950155
:1048E00040F189809A6841F2883022F0030242F058
:1048F00002029A60D4F838131DE000BF00000000E7
:104900007036000040DB090800ED00E0003802408E
:10491000FFFFF6FE10300024000000080070004089
:10492000D028022008004000003C0240D4F8382380
:10493000521A82425FD89A6802F00C02082AF5D116
:10494000524A136818070AD5136823F00F0343F07F
:1049500007031360136803F00F03072B4BD14C4C74
:10496000A36823F4E05343F4A053A360A36823F4A3
:10497000604343F40043A360FFF7A2FCA368F02167
:1049800091FAA1F2B2FA82F403EA0102414DE24047
:10499000414B424C2A4492F85C2020FA02F2A3FBDD
:1049A0000203C4F894219B09013BB3F1807F09D233
:1049B0004FF0E02253613A4B83F8231000239361B8
:1049C000072313614FF0FF3000216BF075F80023CF
:1049D000344A10A8CDE921331092CDE92333CDE933
:1049E0002533CDE92733CDE92933CDE92B33FCF746
:1049F000B3FC10B1FEE7FEE7FEE7254BD3F88C20B1
:104A000022F08072C3F88C20D3F88C2042F08072A0
:104A1000C3F88C209A6802F00C02042A31D0082ACC
:104A200014D0214BC4F89431194AD4F894319268C7
:104A30001E49C2F30312154495F85C20D3408B4203
:104A4000C4F8943100D0FEE735B030BD59685A68DB
:104A500049025B6802F03F0248BF1549C3F388135F
:104A600058BF1149B1FBF2F202FB03F3084A526846
:104A7000C2F3014201325200B3FBF2F3C4F89431A5
:104A8000D2E70B4BC4F89431CEE700BF003C0240A4
:104A90000038024008D90808D34D621000000220F7
:104AA00000ED00E0C0FF03000024F40000E6DF0C8E
:104AB00000127A002DE9F843D0F8009006468846A7
:104AC000C9F30E051DBB564B99453AD3554B994535
:104AD00036D9554B9945C0F09780544B994540F2D3
:104AE000958003F50033994540F2928003F58023C9
:104AF000994540F28F8003F58023994540F28C80E0
:104B0000B9F1016FC0F08A80052017F0A3FA484F71
:104B100097F85C38012B0FD00123D1F8008087F87B
:104B20005C386AF071FF0546002847D000236FF01B
:104B3000010087F85C3801E06FF00100BDE8F88300
:104B400001253B4F97F85C38012B5AD0012387F899
:104B50005C386AF059FF002850D1364CF82322699E
:104B600022F440722261226942F4007222612269B9
:104B700022F0F802226193FAA3F3B3FA83F32269D5
:104B80009D40154345F002052561236943F48033B8
:104B90002361BFF34F8F6AF037FF236923F0FA03D5
:104BA000236158BB0123D6F80090D8F8008087F81D
:104BB0005C386AF029FF05460028B7D11D4C2369EF
:104BC00023F440732361236943F400732361236951
:104BD00043F001032361C9F80080BFF34F8F6AF0EF
:104BE00013FF236923F00103236187F85C58002831
:104BF000A2D1336804333360BDE8F883002387F81B
:104C00005C384FF0FF3099E702259AE7032598E7D3
:104C1000042596E7052594E7062592E7072590E702
:104C200000800008FFFF000800800108FFFF010866
:104C3000D0280220003C02400148FBF72BBB00BFFC
:104C400038310220084810B4D0F86838D0F89C48B1
:104C500099691A682CB1234600F668005DF8044B88
:104C600018475DF8044B7047D02802200148FBF735
:104C700011BB00BF88310220084810B4D0F8B83802
:104C8000D0F8EC4899691A682CB1234600F6B800B0
:104C90005DF8044B18475DF8044B7047D02802209C
:104CA0000148FBF7F7BA00BFD8310220084810B41A
:104CB000D0F80839D0F83C4999691A682CB12346D4
:104CC00000F608105DF8044B18475DF8044B704778
:104CD000D02802202DE9F04FDFF894B300EB400418
:104CE000430083B00BEB84040193D4F89833002B7A
:104CF00000F07F81814694F89E036AF0FFFA94F8F1
:104D00009C0314F067FB064694F89D0314F062FBC5
:104D100009F101038046DBB2002E00F08D8140F6E0
:104D20000E123372F280002800F07C81037240F68C
:104D30000E23C3803368B2889A61D8F80030B8F87F
:104D400004209A6111213046092714F0F9FA112143
:104D5000404614F0F5FA6525002E00F04D813268CA
:104D6000B3881169194200F047811B04936116F062
:104D700091FF04460D4616F08DFF001B61EB050107
:104D8000052871F10003F6D316B13368B2889A6131
:104D900016F080FF04460D4616F07CFF001B61EB09
:104DA0000501052871F10003F6D3013FD3D11EB1EF
:104DB000B38832681B04936116F06CFF04460D46FD
:104DC00016F068FF001B61EB0501052871F1000377
:104DD000F6D3B8F1000F05D0B8F80430D8F80020A9
:104DE0001B04936116F056FF04460D4616F052FF61
:104DF000001B61EB0501052871F10003F6D316B124
:104E00003368B2889A6116F045FF04460D4616F0E5
:104E100041FF001B61EB0501052871F10003F6D38A
:104E2000B8F1000F04D0D8F80030B8F804209A6127
:104E3000019B30463E218A4C03EB090709EB8906AA
:104E40004FEA89050BEB870704EB061697F8A223B8
:104E500014F09CFA97F8A22340463E2114F096FAEB
:104E6000D7F898334FF4E052C6F868387D4B9B680A
:104E700092FAA2F2B2FA82F203F4E0537A49D340F2
:104E800097F89F23DBF894010B44022A93F85430DF
:104E900020FA03F000F0CA80032A00F0DA80012A29
:104EA00014BF4FF4C8714FF448716AF07FFCC6F824
:104EB0006C0805EB0903002204EB0313C3F8702808
:104EC000C3F87828C3F87C28C3F88428C3F8882856
:104ED0000122C3F8742893F8A92802F0FF01002AE0
:104EE00000F0B48005EB0902242704EB0212D2F88B
:104EF000683882F8A978D2F86C18186821F07061C7
:104F000020F0010018601961996821F4004199604E
:104F10004FF40041996001F10071586801435960F4
:104F2000D2F88018D868090220F40040D860D9600F
:104F300000211960186840F0010018602020C2F8B4
:104F4000AC1882F8A908C2F8981882F8AA1892F842
:104F5000A9082028C6B217D192F8A808012813D0B2
:104F600082F8A978186820F001001860186820F409
:104F70008050186018681860186840F001001860C8
:104F800082F8A96882F8A818019B022103EB0906A0
:104F90000BEB860696F9A1036AF08EFD96F9A13314
:104FA00096F8A123002B07DB02F01F0101225B0909
:104FB0008A402E4941F82320019B02214B440BEBF0
:104FC000830B9BF9A0036AF077FD9BF9A0339BF854
:104FD000A023002B07DB02F01F0101225B098A409E
:104FE000224941F823204D44012304EB051484F8A1
:104FF000643803B0BDE8F08F013D0DD016F04AFED5
:1050000004468A4616F046FE001B61EB0A0105289D
:1050100071F10003F6D39FE6002E3FF4A8AE32688C
:10502000B388A2E63368B2889A618BE664216AF09D
:10503000BDFBC6F86C083CE700283FF483AE88F857
:10504000083040F60E23A8F8063076E683F8A81854
:1050500048E7C8216AF0AAFBC6F86C0829E700BF38
:10506000D02802200038024008D9080800E100E0FA
:10507000000002202DE9F04F441C83B09DF834A0BD
:1050800000F0BA800446BC4D00EB80004FEA840972
:1050900005EB001090F86488B8F1000F00F0AE80C6
:1050A000002B18BFFF2A0CBF012600261AEA060AA9
:1050B00040F0A88090F8A968202E40F01D819FB292
:1050C000002B00F0198190F8A838012B00F0148112
:1050D0000123D5F8386380F8A838D0F8680805E0CF
:1050E000D5F838339B1B192B00F21581836913F413
:1050F0000043F5D109EB040A4FF0210E4FF0400CAC
:10510000019205EB0A1B8BF8A9E8CBF89C388BF8C9
:10511000AAC8CBF8AC380C9BABF892784F00CBF810
:105120008C38436823F07F7323F4593323F47F735F
:1051300023F0030343EA4103904901EB0A1A904923
:1051400019434160314650466AF034FC019A002808
:1051500040F0ED80DBF868188A6205E0D5F8382366
:10516000921B0A2A00F2B6818B6913F08003F5D0F6
:1051700009EB040205EB0212B2F892389BB2FF2B46
:1051800040F28D814B687F4803407F483B43184382
:10519000FF23A2F89038486009EB040305EB031BDA
:1051A000019305E0BBF892389BB2002B00F0878199
:1051B000314650466AF0FEFB002840F09780DBF84D
:1051C0008C18DBF86828481CBBF89038CBF88C08A2
:1051D000013B09789BB29162BBF89218ABF890380A
:1051E000013989B2ABF89218002BDBD1BBF89238A9
:1051F0009BB2002BD6D0D0E04FF00008404603B061
:10520000BDE8F08F90F8A928202A75D190F8A82839
:10521000012A71D00122D5F838B380F8A828D0F837
:10522000680806E0D5F83823A2EB0B02192A00F231
:105230000F81826912F40042F4D14F0009EB04019E
:105240000C9E9BB205EB0111C1F88C682126C1F8B8
:105250009C2881F8A968102681F8AA68C1F8AC28B2
:10526000A1F89238B1F892389BB2FF2B40F2E0805F
:105270004368444A1340454A3B431A43FF23A1F87D
:105280009038426009EB04063C4B03EB061805EB33
:105290000616B6F892389BB233B9E6E0B6F8923803
:1052A0009BB2002B00F0E180594640466AF082FB39
:1052B000E0B9D6F88C28D6F86818501CB6F89038A3
:1052C000C6F88C08013B12789BB28A62B6F8922825
:1052D000A6F89038013A92B2A6F89228002BDDD1B8
:1052E000B6F892389BB2002BD8D031E009EB04031A
:1052F00005EB0313D3F8AC38B5F854394FF0000878
:10530000204601339BB2A5F85439FFF7E3FC404631
:1053100003B0BDE8F08FA1440023202205EB09195A
:1053200089F8A92889F8A83889F8AA38E4E7DBF8C9
:10533000AC38A14405EB0919D9F8AC38002389F839
:10534000A838D9E7D5F83823A2EB0B020A2A58D897
:105350008B6913F08003F5D0B6F892389BB2FF2B1F
:105360002FD94B68074A1340074A3B431A43FF2390
:10537000A6F890384A6091E7D02802203831022000
:1053800000200101009800FC0000FF010020FF0147
:10539000D5F838339B1B0A2B3FD8906910F080005A
:1053A000F6D0BBF892389BB2FF2B1AD953685749F5
:1053B0000B4057493B431943FF23ABF890385160EA
:1053C000F0E6B6F8923851489BB24A68A6F8903891
:1053D000DBB2024047EA0343134343F000734B60E0
:1053E0005CE7BBF8923849489BB25168ABF89038FB
:1053F000DBB2014047EA03430B4343F000735360C1
:10540000D0E6A1441946202305EB091989F8A938EB
:1054100089F8A81889F8AA186EE7A144202305EB9B
:10542000091989F8A93889F8A80889F8AA0863E74A
:10543000B1F8923842689BB2A1F89038DBB2334998
:1054400047EA03430A401343324A1A43426019E7CA
:1054500009EB04030022202105EB031383F8A918AC
:1054600083F8A82883F8AA2846E7594640466AF0F8
:1054700077FA00287FF43AAF4C442021D04605EB60
:105480000415254CD5F86838D9615A6822405A600D
:1054900085F8A91885F8A80885F8AA08AEE6B2F834
:1054A00092381A489BB2A2F89038DBB24A6847EAB1
:1054B00003430240134343F000734B606CE63146F4
:1054C00050466AF04DFA019B70B105EB031BDBF807
:1054D000AC3811E709EB0402202105EB021282F837
:1054E000A91882F8AA3824E7DBF8682820240A4E95
:1054F00005EB0315D4615168314051608BF8A94820
:1055000085F8A8088BF8AA0878E600BF009800FC88
:105510000000FF010020000200E800FE2DE9F04F2E
:10552000054683B0681C9DF8347000F04C81084635
:10553000C54C05EB8501AE0004EB011191F86498B0
:10554000B9F1000F00F08780FF2A14BF002707F091
:1055500001070097002F00F0828091F8A928202AE7
:105560006ED191F8A828012A6AD00122D4F8388394
:1055700081F8A828D1F8681806E0D4F83823A2EBFF
:105580000802192A00F2A1818A6912F40042F4D1BA
:105590004FEA400970194FF0220C9BB204EB001047
:1055A0000C9F80F8A9C84FF0100CC0F88C7880F8D8
:1055B000AAC8C0F8AC28A0F89238B0F89238C0F861
:1055C0009C289BB2FF2B40F28F814B689F4A13406F
:1055D0009F4A43EA09031A43FF23A0F890384A6020
:1055E00006EB050A9B4B03EB0A1B04EB0A1ABAF8FD
:1055F00092389BB2002B00F0BA81DAF868780DE09F
:10560000DAF86878BB6913F0200340F02781D4F8FA
:105610003823A2EB08020A2A00F23881BB6941460E
:1056200058465B0700F1D580BB69DA06EAD56AF017
:1056300059F90028E4D0731904EB0313D3F8AC38FC
:10564000B4F8543928464FF0000901339BB2A4F84E
:105650005439FFF73FFB484603B0BDE8F08F91F89F
:10566000A9785FFA87FC0C9F002FE9D0BCF1200FCE
:10567000E6D191F8A878012FE2D00127D1F868C8C7
:1056800081F8A878D4F8381305E0D4F838737F1A75
:10569000192F00F21A81DCF8187017F40047F4D1C2
:1056A00006EB050E9BB24FF0220A4FF0400B04EBC5
:1056B0000E180192009188F8A9A888F8AAB8C8F82D
:1056C000AC78A8F892380C9BC8F89C78C8F88C384D
:1056D0005E4FDCF804303B40470043EA400343F4AC
:1056E0009033CCF804305B4B03EB0E1A50466AF053
:1056F00061F9DDE90012002840F00681D8F8680859
:10570000826205E0D4F83823521A0A2A00F26C812A
:10571000836913F04003F5D0721904EB0212B2F85A
:1057200092389BB2FF2B40F24D814368DFF81CC1D9
:1057300003EA0C03DFF818C13B4343EA0C0CFF23D8
:10574000A2F89038C0F804C006EB050BDFF8FCC0E7
